:100000000C9425070C944D070C944D070C944D0748
:100010000C944D070C944D070C944D070C944D0710
:100020000C944D070C944D070C944D070C944D0700
:100030000C944D070C944D070C944D070C944D07F0
:100040000C94D6220C944D070C944D070C944D073C
:100050000C944D070C944D070C944D070C944D07D0
:100060000C944D070C944D07084AD73B3BCE016ECC
:1000700084BCBFFDC12F3D6C74319ABD56833DDAFF
:100080003D00C77F11BED9E4BB4C3E916BAAAABE0E
:10009000000000803F000000000000700100C00070
:1000A0000C00CAA77C0A42F55508534248195EF570
:1000B0005112003000000027450040941C0014F34A
:1000C000190504F111042004000004411004000487
:1000D0000000104208015E14450F40F00100595520
:1000E000551351555D0D8C927C085755550D5E5535
:1000F000550D51520C015E55550F5655550F00A028
:10010000000000A4000000C2280080A22800806235
:10011000080040500D005E7455079C92241F5F55E7
:100120005D0D9C1445115F1425075F5555115F51F6
:1001300014015E54551D1F41101F40F4450010046A
:1001400021071F41181D1F0441105EF0041F9C1061
:10015000041F5E54450F5F9214035ED4451F5F92E7
:10016000341B5655550D41F005011F0421071F4250
:1001700008011FE4410F1743181D07C1090151561B
:100180004D1100F0450000F0010040F40100801026
:100190000C00100441103E476B6D6D413E3E4155D1
:1001A0005551653E000306090C0F1215181C1F223D
:1001B00025282B2E303336393C3F414447494C4E9D
:1001C000515355585A5C5E60626466686A6C6D6F24
:1001D00070727375767778797A7B7C7C7D7E7E7F92
:1001E0007F7F7F7F80AE2251220322367F77551496
:1001F0000808082A6B7F3E2A081C3E36637F63414D
:10020000081C495D7F2A49143E7F6B632214775D89
:10021000551C3E3622000000C0F0F0F8F8F8F0F06F
:10022000C00000000000000107070F0F0F070701C3
:1002300000000000E0F8FCFCFEFEFEFEFEFCFCF808
:10024000E00000030F1F1F3F3F3F3F3F1F1F0F03F3
:1002500000E0F8FCFEFEFF3F3F3FFFFEFEFCF8E043
:10026000030F1F3F3F7F7E7E7E7F3F3F1F0F03E0D8
:10027000F8FCFE3E1F0F0F0F1F3EFEFCF8E0030FC1
:100280001F3F3E7C7878787C3E3F1F0F03E0F81CD0
:100290000E060303030303060E1CF8E0030F1C38CD
:1002A00030606060606030381C0F03E018040202A8
:1002B000010101010102020418E0030C102020409A
:1002C000404040402020100C035449544C450052FB
:1002D0004554525900FCFEFE063E3E3C00E0F0F064
:1002E00030F0F0E000F0F0F020F0F0E020F0F0E08E
:1002F00000F0F0F020F0F0E000FEFEFE00E0F0F094
:10030000B0F0F0E000FCFCFC3000E0F0F0B0F0F009
:10031000E000E0F0F020FEFEFE00FEFEFE1F3F3F8C
:10032000303F1F0F001F3F3F303F3F1F003F3F3F09
:10033000003F3F3F003F3F3F007F7F7F103F3F1F19
:10034000003F3F3F001F3F3F313D3D1D003F3F3FCE
:1003500030001F3F3F313D3D1D001F3F3F103F3FDD
:100360003F003B3B3BFEFEFEC6C600E0F0F030F037
:10037000F0E000F6F6F600FEFEFE00E0F0F0B0F071
:10038000F0E000E0F0F020FEFEFE000000000000C3
:100390000000003F3F3F0000001E3E3E133F3F3F36
:1003A000003F3F3F003F3F3F001F3F3F313D3D1D6E
:1003B000001F3F3F103F3F3F0038380038380038BB
:1003C00038FEFEFEC6FEFE7C00E0F0F0B0F0F0E08D
:1003D00000E0F0F030F0F0E000E0F0F020FEFEFE93
:1003E0000070F0F08000F0F07000DCDEDE86FEFCD5
:1003F000F83F3F3F003F3F3F001F3F3F313D3D1D26
:10040000001E3E3E133F3F3F001F3F3F103F3F3F18
:100410000000637F7F787F1F00003B3B3B010101B1
:10042000004241434B20544F205449544C45005204
:100430004554525900434F4E54494E554500550EB0
:10044000644F0F5D43414E43454C004F4B005041BC
:10045000545445524E3A004F424E2D593133205696
:10046000455220302E313100C0C6CFDFFFFB730371
:100470007CFEFFC7E3FF7F3E00FFFFFF1B1B1B034C
:10048000000303FFFFFF0303000000000000000063
:10049000808080800000000000000000000000005C
:1004A00080E0F058AC56AB55AB5500FF010101029E
:1004B00002040810608000003FFFAA55AA55AA5503
:1004C000AA55A85FAC5CAC5CAC5CAC5C0CCF3C00EF
:1004D00000000103060D1A152A252A252A252215B2
:1004E0001209040201000000FFFF57AB57AB57ABE6
:1004F00057AB03FF80808000000000000000000078
:10050000FFFF55AA55AA55AA55AA00FF00000001F1
:100510000102040830C000001F7FD5AA55AA55AAC1
:1005200055AA54AF56AE56AE56AE562E86671E002E
:100530000000000103060D0A151215121512110A0A
:10054000090402010000000000000000000080809B
:10055000C0C0C0C08080800000000000000000001B
:10056000C0F078AC56AB55AA55AA00FF00000001B8
:100570000102040830C00000FFFF55AA55AA55AA81
:1005800055AA00FFFEAE56AE56AE56AE5607FE005A
:100590001F171512151215121512101F171215120A
:1005A0001512151215101F000000A040A000281001
:1005B0004438827C007C8ED6DADA827C00383800BF
:1005C000387CFE000000270C870C4A0B550B0000FE
:1005D000A319E0183A16FC124352454449540053FB
:1005E000455454494E4753004E45572042415454B8
:1005F0004C45005245545259004558495400444511
:10060000544543542045444745004C454420424C02
:10061000494E4B005041545445524E0044494646C1
:100620004943554C5459000C0E06030303060E04AF
:100630000C0E1E0F0F0F0E0E040C0E1E1F1F1F0E92
:100640000E0470FC0E0603030370FC7E3E0F0F0FBA
:1006500070FC7E3E3F1F0F00000000000000000005
:10066000807E1FBC78E0C0C080808080404020B089
:1006700058AC5CB878F0E0C000000000804020A0DA
:10068000108847A050AA55AAF50BE7060C0A1C7A59
:10069000F5FAFD7E03010102050B070E314994BAFC
:1006A0007DFEEDC607070912254A558A952B56305F
:1006B00050B87FFFFFFCE0000000000000000000D9
:1006C0000000010205070300000000000000000117
:1006D00001020408152A556FDFFF78000000004F63
:1006E0004646004F4E200052414E444F4D2000538D
:1006F00050454349465900504C41592054494D45B5
:1007000000504C415920434F554E5420005B5345F7
:100710005454494E47535D002D2041524455425593
:100720004C4C4554202D0000004D4152434820328E
:100730003032300050524F4752414D4D45442042D7
:1007400059204F424F4E4F000054484953205052B9
:100750004F4752414D2049530052454C4541534566
:100760004420554E44455200544845204D4954209C
:100770004C4943454E53452E001B00080C0E0E0CF1
:100780000801030707030143414E43454C20202045
:100790005354415254000000F8FFFFFF0FFFFFFFCA
:1007A000F0000000FFFFFFFFFF0F0FFFFFFFFEFC49
:1007B00000FFFFFFFFFF0F0FFFFFFEFEFC00FFFF2C
:1007C000FFFFFF0000FFFFFFFFFF00FFFFFFFFFF36
:1007D0000F0FFFFFFEFEF800FFFFFFFFFF0000FF0F
:1007E000FFFFFFFF00FFFFFFFFFF00000000FFFF14
:1007F000FFFFFF00000000FFFFFFFFFF0F0F0F00D4
:100800000F0F0FFFFFFFFFFF0F0F0FE0F0F8F8F8DB
:100810003838F8F0F0E080FEFFFFFFE3E0E3FFFF91
:10082000FFFC8000FFFFFFFFFF0F0FFFFFFFFBF14B
:1008300000FFFFFFFFFF0000FFFFFFFFFF00FFFFC4
:10084000FFFFFF0000FFFFFFFFFF00FFFFFFFFFFB5
:100850000F0FFFFFFDFDF800FFFFFFFFFF0000FF90
:10086000FFFFFFFF00FFFFFFFFFF00000000FFFF93
:10087000FFFFFF00000000FFFFFFFFFF0F0F0F0053
:10088000000000FFFFFFFFFF000000878F9F9F3FDA
:100890007EFCFDF9F1E11F1F1F1F1F0101011F1F3A
:1008A0001F1F1F001F1F1F1F1F00001F1F1F1F1FB5
:1008B000001F1F1F1F1F1E1E1F1F1F0F07000307E4
:1008C0000F1F1F1E1E1F1F0F0F03001F1F1F1F1FA5
:1008D0001E1E1F1F1F0F070003070F1F1F1E1E1FB7
:1008E0001F0F0F03001F1F1F1F1F1E1E1E001F1F95
:1008F0001F1F1F1E1E1E001F1F1F1F1F1E1E1E1E2E
:100900000000001F1F1F1F1F000000070F0F1F1CEC
:100910001C1F1F0F0F0700000000003E5B4F5B3ED7
:100920003E6B4F6B3E1C3E7C3E1C183C7E3C181CB4
:10093000577D571C1C5E7F5E1C00183C1800FFE7AB
:10094000C3E7FF0018241800FFE7DBE7FF30483A51
:10095000060E2629792926407F050507407F0525B3
:100960003F5A3CE73C5A7F3E1C1C08081C1C3E7F3B
:1009700014227F22145F5F005F5F06097F017F0002
:100980006689956A606060606094A2FFA294080422
:100990007E040810207E201008082A1C08081C2A43
:1009A00008081E101010100C1E0C1E0C30383E389B
:1009B00030060E3E0E06000000000000005F000042
:1009C0000007000700147F147F14242A7F2A1223B3
:1009D0001308646236495620500008070300001CC3
:1009E0002241000041221C002A1C7F1C2A08083ECC
:1009F00008080080703000080808080800006060DF
:100A00000020100804023E5149453E00427F40004C
:100A100072494949462141494D331814127F102724
:100A2000454545393C4A4949314121110907364973
:100A3000494936464949291E000014000000403447
:100A4000000000081422411414141414004122144C
:100A50000802015909063E415D594E7C1211127C73
:100A60007F494949363E414141227F4141413E7FD4
:100A7000494949417F090909013E414151737F08B4
:100A800008087F00417F41002040413F017F08145A
:100A900022417F404040407F021C027F7F040810BB
:100AA0007F3E4141413E7F090909063E4151215E99
:100AB0007F09192946264949493203017F01033F2D
:100AC0004040403F1F2040201F3F4038403F6314BC
:100AD00008146303047804036159494D43007F41BE
:100AE00041410204081020004141417F04020102FB
:100AF0000440404040400003070800205454784020
:100B00007F284444383844444428384444287F38B3
:100B10005454541800087E090218A4A49C787F0835
:100B200004047800447D40002040403D007F1028B0
:100B3000440000417F40007C047804787C08040471
:100B4000783844444438FC1824241818242418FC09
:100B50007C08040408485454542404043F44243CAE
:100B60004040207C1C2040201C3C4030403C44281D
:100B70001028444C9090907C4464544C44000836B7
:100B80004100000077000000413608000201020425
:100B9000023C2623263C1EA1A161123A4040207A45
:100BA000385454555921555579412154547841218F
:100BB0005554784020545579400C1E5272123955C4
:100BC00055555939545454593955545458000045C1
:100BD0007C410002457D420001457C40F0292429EA
:100BE000F0F0282528F07C545545002054547C54BE
:100BF0007C0A097F493249494932324848483232F1
:100C00004A4848303A4141217A3A42402078009D92
:100C1000A0A07D39444444393D4040403D3C24FF40
:100C20002424487E4943662B2FFC2F2BFF0929F6ED
:100C300020C0887E090320545479410000447D413E
:100C40003048484A32384040227A007A0A0A727D97
:100C50000D19317D2629292F2826292929263048B2
:100C60004D4020380808080808080808382F10C820
:100C7000ACBA2F102834FA00007B000008142A14A4
:100C80002222142A14089500220095AA005500AAD1
:100C9000AA55AA55AA000000FF00101010FF00146A
:100CA0001414FF001010FF00FF1010F010F01414C7
:100CB00014FC001414F700FF0000FF00FF1414F4EC
:100CC00004FC141417101F10101F101F1414141FED
:100CD00000101010F0000000001F101010101F1066
:100CE000101010F010000000FF1010101010101065
:100CF0001010FF10000000FF140000FF00FF0000B4
:100D00001F10170000FC04F414141710171414F427
:100D100004F40000FF00F714141414141414F70062
:100D2000F7141414171410101F101F141414F414B3
:100D30001010F010F000001F101F0000001F140022
:100D40000000FC140000F010F01010FF10FF14144D
:100D500014FF141010101F00000000F010FFFFFF20
:100D6000FFFFF0F0F0F0F0FFFFFF0000000000FFD9
:100D7000FF0F0F0F0F0F38444438447C2A2A3E14CB
:100D80007E02020606027E027E02635549416338F6
:100D900044443C04407E201E2006027E020299A5A7
:100DA000E7A5991C2A492A1C4C7201724C304A4D05
:100DB0004D303048784830BC625A463D3E4949493A
:100DC000007E0101017E2A2A2A2A2A44445F4444E3
:100DD00040514A444040444A51400000FF0103E072
:100DE00080FF000008086B6B083612362436060FA9
:100DF000090F06000018180000001010003040FF16
:100E00000101001F01011E00191D1712003C3C3C8E
:100E10003C0000000000AED5F0A83FD300408D1488
:100E2000A1C8DA1281CFD9F1DB40A4A6AF200021FE
:100E3000007F220007660D5D0D7B138D1702170FD3
:100E40000C3717AF10131A00642311241FBECFEF05
:100E5000D8E0DEBFCDBF11E0A0E0B1E0E0ECF3E50B
:100E600002C005900D92A032B107D9F727E0A0E2A9
:100E7000B1E001C01D92AC34B207E1F717E0C5E262
:100E8000D7E004C02197FE010E94C326C432D107D7
:100E9000C9F70E948B230C94DE290C94000020914A
:100EA0004A0730E02095309540914B0750E02423CD
:100EB000352390E02823392381E0232B09F480E0B7
:100EC0000895CF93DF93DC0177FF13C022273327E8
:100ED000261B370B842F042E000C990B281739077B
:100EE0002CF4460F70E060E0141644F0DF91CF91CF
:100EF00008951416DCF760347105C4F7A038B10505
:100F0000A8F7262FCB01840F911D47FD9A958134B8
:100F1000910514F040E4461B27709FEF022E01C09C
:100F2000990F0A94EAF7420F621B710977FF02C01A
:100F3000695F7F4F83E0759567958A95E1F7FB01BF
:100F4000F695FE2FEE27F795E795EA0FFB1FE35D79
:100F5000FC4F28E030E06FEF70E014163CF64830AC
:100F600064F4D901A41BB10947FDB395EB0102C09C
:100F7000D595C795AA95E2F79C238081982B9083FD
:100F80004850E058FF4F9FEFE8CF80E0EDE2F3E0FC
:100F900081118FEF00248193819381938193039436
:100FA000D1F7E3E3F7E0128A118A108A17860895D1
:100FB0003FB7F8948091290390912A03A0912B03C5
:100FC000B0912C0326B5A89B05C02F3F19F00196C0
:100FD000A11DB11D3FBFBA2FA92F982F8827BC0193
:100FE000CD01620F711D811D911D42E0660F771FBB
:100FF000881F991F4A95D1F708950895AF92BF921F
:10100000CF92DF92EF92FF920F931F93CF93DF93D4
:101010006C017B018B01040F151FEB015E01AE1803
:10102000BF08C017D10759F06991D601ED91FC9125
:101030000190F081E02DC6010995892B79F7C50152
:10104000DF91CF911F910F91FF90EF90DF90CF90A4
:10105000BF90AF9008958F929F92AF92BF92CF9220
:10106000DF92EF92FF926C01F12CE12C0E94D807E5
:101070004B015C010E94D807681979098A099B090C
:10108000683E734081059105A8F321E0C21AD1089A
:10109000E108F10888EE880E83E0981EA11CB11CBF
:1010A000C114D104E104F10429F7FF90EF90DF901F
:1010B000CF90BF90AF909F908F90089533990CC0C0
:1010C00080E84A9B8061319B80624B9B80644C9B93
:1010D0008860329B8460089580E0F3CF8093BB00EA
:1010E00084E88093BC008091BC0087FFFCCF08950A
:1010F00084EA8093BC008091BC0087FFFCCF88E726
:101100000C946E080E94780880E48093BB0084E809
:101110008093BC00EDE2F3E09091BC0097FFFCCF20
:1011200091919093BB008093BC0097E0ED32F9075A
:1011300099F78091BC0087FFFCCF84E98093BC00C5
:101140008091BC0084FDFCCF08953F924F925F9246
:101150006F927F928F929F92AF92BF92CF92DF92C7
:10116000EF92FF920F931F93CF93DF9330E0F9013B
:10117000E80FF91FF7FDD5C0803891050CF0D1C0FC
:10118000FB01E00FF11DF7FDCCC0603471050CF0E0
:10119000C8C0DB0177FF04C0AA27BB27A61BB70B7B
:1011A000A770BB27FB0177FD3796C3E0F595E79560
:1011B000CA95E1F777FF07C0319768E070E0EB016F
:1011C000CA1BDB0BDE01402E469446944694512CFC
:1011D000077019F0DFEF4D1A5D0ABF01EF01D695D8
:1011E000DC2FCC27D795C795C80FD91FC35DDC4F1F
:1011F0008A01460E571E48E050E04A018A1A9B0AAF
:101200006415750509F48DC06830710509F489C04D
:101210006F3FEFEF7E070CF44BC06C0150E040E0F5
:101220003E01E0E86E0E711CD7FC35C06F3F7607BB
:1012300009F473C05E01A40EB51EF501F080FA0139
:10124000E00FF11F33243394E31039C0E4910A2EE8
:1012500001C0EE0F0A94EAF7FE2AF501F08210971A
:10126000D1F067307105B9F05301A40EB51EF50138
:10127000F080FA01E00FF11F33243394E31035C0FE
:10128000E491F0E0082C02C0F595E7950A94E2F7A6
:10129000FE2AF501F0824F5F5F4FFFEFCF1ADF0AA2
:1012A000421753072CF4F0E8CF16D10409F0BCCF55
:1012B0006F5F7F4FC058DF4F020F131FA1CFE110A8
:1012C0000CC0E491F0E00A2E02C0EE0FFF1F0A945A
:1012D000E2F7E095F095FE22C0CFE4910A2E01C01E
:1012E000EE0F0A94EAF7FE26B8CFE1100CC0E491A5
:1012F000F0E0082C02C0F595E7950A94E2F7E09536
:10130000F095FE22C6CFE491F0E0082C02C0F595DE
:10131000E7950A94E2F7FE26BCCF109709F0A4CF18
:10132000BACFDF91CF911F910F91FF90EF90DF9097
:10133000CF90BF90AF909F908F907F906F905F9075
:101340004F903F9008956F927F928F929F92AF92AD
:10135000BF92CF92DF92EF920F931F93CF93DF93C1
:101360006C015B014A01122FC1E0D0E083E0682EDE
:10137000712CCE01B3010E94AF266A0D7B1D615016
:1013800071098C0D9D1DE12C00E1212FA401019715
:101390000E94A5082296C930D10559F7EE24E3949E
:1013A000212FA401B501C6010E94A508DF91CF91AC
:1013B0001F910F91EF90DF90CF90BF90AF909F90D3
:1013C0008F907F906F90089580389105B8F46034C5
:1013D0007105A0F420E191E061FD94E060FD990FBA
:1013E00062FD9295687F269FD0011124A80FA35D0E
:1013F000BC4F8C9140FF03C0892B8C93089590952E
:101400008923FBCF2F923F924F925F926F927F92F0
:101410008F929F92AF92BF92CF92DF92EF92FF9204
:101420000F931F93CF93DF93CDB7DEB72A970FB6F5
:10143000F894DEBF0FBECDBF9A8389836A3061F511
:10144000DC0155968C91B8E08B9F90011124E981C5
:10145000FA8181899289820F931F928B818B108AE6
:10146000178681E090E02A960FB6F894DEBF0FBE93
:10147000CDBFDF91CF911F910F91FF90EF90DF9043
:10148000CF90BF90AF909F908F907F906F905F9024
:101490004F903F902F9008956D3019F329813A8134
:1014A0003A872987D9011F96AD90BC90B0E8AB165A
:1014B000B1040CF07BC0F901C188D288F0E4CF16EA
:1014C000D1040CF073C0D90155966C90559745E046
:1014D0009501649E200D311D1124121613060CF087
:1014E00065C0262C312C910153E0220F331F5A95F1
:1014F000E1F72C0D3D1D121613060CF057C0549643
:10150000BC91BB83E985FA85F389FC83649FB001B4
:1015100011249B012A5E364F3A832983712CE9817D
:10152000FA818491F5E07F1201C080E0460138E045
:10153000532E282F30E03E832D834C8080FF4B803C
:10154000411004C03B818C813817E1F010E000E0CD
:101550000615C0F4D501A00FB11FB887AF83F12CD9
:10156000E12CE61460F4B701680D791D442D8F81DC
:1015700098850E94E409BFEFEB1AFB0AF2CF0F5FD8
:101580001F4FE6CF8D819E81959587955A94820C49
:10159000931C5110CECF7394E981FA813196FA836E
:1015A000E983A20CB31CF6E07F12B9CFA985BA85F6
:1015B00055962C915597422F50E01F968D919C91F6
:1015C000B6E02B9F800D911D1124E985FA85908B43
:1015D00087872689222309F444CF6AEF64039001A8
:1015E000659F300D112420583F4F281739070CF004
:1015F00038CFDF010190F081E02D0190F081E02DE6
:101600006AE0CD0109952DCFEF920F93EE24E3947C
:1016100005E120E846E957E068E070E090E080E00E
:101620000E94A5080F91EF900895E0E1F3E020916A
:101630000F032D5F81E090E0A0E0B0E004C0880FD0
:10164000991FAA1FBB1F2A95D2F723818227838364
:1016500081E0809320030895E3E1F3E02081822F6D
:101660008F7090E06AE070E00E94AF268F5F8F700D
:10167000207F282B208381E080932003089583E03E
:1016800080930E0381E080932103089585E0809389
:101690000E0308958CE00E944F07882329F081E013
:1016A00080930E038093210308958F929F92AF92AF
:1016B000BF92CF92DF92EF92FF92CF9380E40E948D
:1016C0004F07C82F80E20E944F07C81B8C2F99F04C
:1016D00090911A032C2FCC0F330B290F311D2F3F64
:1016E000320749F02530310534F4890F80931A030D
:1016F00081E080932003C0910503CC2309F453C0FB
:10170000A0901A03B12CF0E0E0E0C12CD12C7601BE
:10171000C394EA15FB0554F43196ABE1B0E0A701A0
:1017200096010E944B266B017C01F3CF80901C0335
:1017300090901D03A0901E03B0901F03C501B4013B
:10174000A70196010E942C26CA01B9012BE130E0C5
:1017500040E050E00E942C262C2F0C2E000C330B66
:10176000C901860F971F4B9740F0A6EEBFEFA70168
:1017700096010E9459266B017C01AC2FCC0FBB0B4C
:10178000A70196010E945626860E971EA81EB91E16
:1017900080921C0390921D03A0921E03B0921F031F
:1017A00081E08093200388E00E944F07882379F02E
:1017B00081E080930E0380932103CF91FF90EF90FF
:1017C000DF90CF90BF90AF909F908F90089584E06E
:1017D0000E944F07882389F340911C0350911D03F9
:1017E00060911E0370911F0380911003909111036B
:1017F000A0911203B0E084179507A607B70729F058
:10180000809113038F7780931303409310035093B9
:1018100011036093120385E080930E03CECFCF9324
:10182000C0910E03C53089F08091210381110E947F
:10183000C507EC2FF0E0EE0FFF1FE253FA4F859142
:101840009491FC01099510922103CF91089580E8AD
:101850000E944F078823B1F080910F03181694F46B
:101860008150982F815024E09202F0011124E95117
:10187000FD4F20813181232BA1F390930F0381E051
:101880008093070380E10E944F07882311F1809124
:101890000F03482F082E000C550B20910603022E33
:1018A000000C330B215031094217530794F48F5F1A
:1018B000982F8F5F24E09202F0011124E951FD4F2F
:1018C00020813181232BA1F390930F0381E080933A
:1018D000070380910803882341F088E00E944F07A6
:1018E000882319F081E08093070384E00E944F076A
:1018F000882361F0E0910F0384E0E802F0011124F5
:10190000E951FD4F0190F081E02D099408958091F7
:101910000F03882379F087FD02C0843044F10E94D0
:10192000270C80E90E944F07882319F081E08093FB
:101930002003089530910403332389F32091130386
:10194000822F8F708150990B830F911D37FD9A95CF
:101950000A966AE070E00E94AF268F5F8F70207F4A
:10196000282B2093130381E080932003D8CF80E6B7
:101970000E944F07882399F20E94150BD0CF9C013B
:101980009091060396306CF484E09802F0011124E3
:10199000E951FD4F33832283718360839F5F90936E
:1019A00006030895109206036CE27BE08CE196E05A
:1019B0000E94BF0C65E17BE084E196E00E94BF0CD1
:1019C00065E17BE08AE096E00E94BF0C65E17BE088
:1019D0008EEF95E00E94BF0C6EE07DE089EF95E010
:1019E0000E94BF0C10920F0381E08093070392E0E6
:1019F00090930D032CE020930C032CE720930B0312
:101A00002EE120930A031092090310920803909389
:101A10000E0380932103809320030895CF93C091F8
:101A20000E03109206038091180390911903892BDD
:101A300061F066E47BE083EF95E00E94BF0C70E00C
:101A400060E090E080E00E94BF0C6FE776E188EEF6
:101A500095E00E94BF0C62ED7CE08FED95E00E9466
:101A6000BF0C6FE37BE088ED95E00E94BF0C809196
:101A700006038250C23031F08091130387FB882720
:101A800080F9880F80930F0381E0809307039CE225
:101A900090930D0396E290930C0394E590930B03BF
:101AA0009AE190930A0310920903809308038093AC
:101AB0000E0380932103CF91089590911B039150C1
:101AC00090931B0381E0911180E0089588E7809353
:101AD0001B030895CF93DF93C0910F0386E0C802E4
:101AE000E0011124A696109206036BEF71E28BE4DD
:101AF00094E00E94BF0C68E97DE084E494E00E94D9
:101B0000BF0C88E280930D03C0930C038FE2809397
:101B10000B038BE080930A0381E080930903809399
:101B2000080380930F0380930703DF91CF910895FB
:101B30001092E00281E080932103089590919F012B
:101B4000903419F1A0910201B0910301FD0130819F
:101B50003F7141F03596A0EAB1E032E0E03EF30794
:101B6000B0F3F4CFF0930301E09302018283638327
:101B7000448312165CF420320CF02FE12F712F7188
:101B8000208311829F5F90939F01089521E0F7CFFA
:101B90008F929F92AF92BF92CF92DF92EF920F936C
:101BA0001F93CF93DF936C015B01C42FD22F802E44
:101BB000912C023070F09401215031094E2D4203D6
:101BC000C001439F900D112497FD0196959587952F
:101BD000C81B10E000E00815190554F42D2F4C2FF8
:101BE000B501C6010E949E0D0F5F1F4FCE0DF3CFB2
:101BF000DF91CF911F910F91EF90DF90CF90BF9029
:101C0000AF909F908F900895EAE2F1E0808187FD88
:101C100002C08B5F8083329681E0EE34F807B1F723
:101C2000089590914B0796FB332730F995FB882751
:101C300080F9381B94FB552750F9892F881F882776
:101C4000881F581B8091270142E0883031F03323F0
:101C500019F043E0511101C044E02091E202349FA9
:101C6000200D1124243FD8F023EF2093E20230917D
:101C7000E102549F300D1124343FA8F033EF30932C
:101C8000E10292FF45C090912601911103C09CE0B2
:101C900090932601883058F0809126010FC02C3097
:101CA00020F72CE0E2CF3C3050F73CE0E8CF8F5FEC
:101CB00080932701809126018823A9F14FEF480FD7
:101CC0004093260163E00E948F2691112CC08BEA7D
:101CD000489F412D1124469584E0841B2695269526
:101CE0002B5F36953695E0910001F091010120833C
:101CF000932F981B91832283380F3383349681E08E
:101D0000EE34F80748F4F0930101E09300010895E0
:101D1000882381F28150CCCF8AE291E09093010137
:101D20008093000108950895282F8091130385FF63
:101D30001DC0E22FF0E0E25CFB4FE4918E2F69E1E1
:101D40000E948F268093250135E08E2F632F0E94FD
:101D50008F26492F0E948F269093240140932301C0
:101D600088E0253009F480E1809322010895CF9323
:101D700010920603C091E502C230B8F16BE877E13A
:101D80008FE294E00E94BF0C6AE67DE0C13011F062
:101D90006BEF71E281E294E00E94BF0C9091060328
:101DA000892F880F890F880F93E190930D0396E395
:101DB000981B90930C0399E590930B0381508093AB
:101DC0000A0391E090930903909308038091210105
:101DD0008927C23009F080E080930F0381E080936F
:101DE00007038093E002CF91089568E97DE085E3E1
:101DF00094E00E94BF0CCC2359F2C0CFE82F87FF9C
:101E000004C0719561957109EF77E1341CF080E8A9
:101E10008E1BE82F0E2E000CFF0BEC55FE4FE491AD
:101E2000E69FC001E79F900D1124880F892F881F1E
:101E3000990B0895CF92DF92EF92FF920F931F9329
:101E4000CF93DF93EC018881282F22952695277068
:101E50009981892F880F880F880F822B92959695EC
:101E600097706CE070E00E94AF266B010B8110E070
:101E70008C810E94FE0E080F191FEA80F12C8C81C4
:101E8000B601805C0E94FE0EA701480F591FC801D1
:101E9000BA01DF91CF911F910F91FF90EF90DF90EA
:101EA000CF9008959F92AF92BF92CF92DF92EF9220
:101EB000FF920F931F93CF93DF930091E10206955A
:101EC000069510E0780181E0E81AF108C091E2027D
:101ED000C695C695D0E06E01E1E0CE1AD10880EA41
:101EE000A82E81E0B82E912C22960E5F1F4FF5018F
:101EF0003081232F2F7109F442C032953695377007
:101F00004181542F550F550F550F852F832B942F3B
:101F1000929596959770820F911D382F3295330FB9
:101F2000307E232B20839295990F907E86958695FF
:101F30008695892B8183C5010E941A0F9B014091D0
:101F40002D0750912E07641775077CF1E09131073A
:101F50004E0F511D6417750744F560912F0770915E
:101F60003007861797070CF140913207460F572F1D
:101F7000511D84179507CCF42C153D0504F5F5E0AB
:101F8000AF0EB11C80EEA81682E0B80609F0AFCF04
:101F9000892DDF91CF911F910F91FF90EF90DF90EE
:101FA000CF90BF90AF909F900895F5018081807E83
:101FB000808380919F01815080939F01E0CF2C17F7
:101FC0003D07ECF68E159F05D4F280179107BCF6FD
:101FD00099249394D4CFCF92DF92EF92FF920F93F4
:101FE0001F93CF93DF937C018B01DB011296EC9161
:101FF000E40FF52FF11DDC011296CC9012978C2D79
:102000008F738E9F90018F9F300D11246C91962FAE
:1020100092959F7011964C91642F63706295607FCA
:10202000692B70E0C9010E949B26D62E242F26958D
:1020300026952F71D801CC918C2F82958695869507
:1020400083701196CC91CF70CC0FCC0FC82BD0E001
:1020500030E0C294C694C69483E0C822D701139698
:102060009C919F70990F990F9C299E9FB0019F9FF3
:10207000700D1124CB01B9010E949B26862F407858
:10208000B901840F0E94FE0EC80FD91FF80100810C
:102090000F7310E0005C1F4FD7016C91862F829563
:1020A0008F7011966C9163706295607F682B70E001
:1020B00080E48D0D0E94FE0EA801480F591FCE012D
:1020C000BA01DF91CF911F910F91FF90EF90DF90B8
:1020D000CF900895EF920F9327E0429FA001112423
:1020E0004A565E4FE090460707E027E00E94A508A9
:1020F0000F91EF90089510920503109204038091C0
:102100004B07982F907F41F1909120019F5F943170
:102110000CF59093200190912001913011F09F30A7
:10212000E9F485FF03C09FEF9093040386FF05C089
:10213000909104039F5F9093040387FF03C09FEF78
:102140009093050384FF0AC0809105038F5F8093FD
:10215000050308959FE0DDCF1092200108950E94AD
:102160007B108091E002882341F00E94270C80912F
:10217000E5028330D1F082E0089580911B038F5FE8
:1021800080931B0380912201882319F08150809352
:102190002201E091E502F0E0EE0FFF1FEB51FE4F50
:1021A00085919491FC010995E2CF81E00895E0E1E9
:1021B000F3E02081318145E0429FC001439F900DB3
:1021C00011244281538167E0649F9001659F300D27
:1021D0001124820F931F875C93484481558169E0E5
:1021E000649F9001659F300D1124280F391F46818F
:1021F00057816BE0649FC001659F900D1124820F91
:10220000931F408551856DE0649F9001659F300D5F
:102210001124820F931F0895EF920F93CF93DF93B2
:1022200077FF0CC088279927861B970B281719065C
:1022300009F00CF47CC0260F70E060E057FF0FC07F
:10224000EE27FF27E41BF50B802F002E000C990BC7
:10225000E817F9070CF06BC0040F50E040E02223B0
:1022600009F465C0603871050CF061C010160CF0FF
:102270005EC0403451050CF05AC0CB01820F911D55
:102280008138910514F020E8261B942FFA01E00F05
:10229000F11D07FDFA95E134F10514F000E4041B8B
:1022A00097708FEF092E01C0880F0A94EAF7090F83
:1022B000491B510957FF02C0495F5F4F93E0559595
:1022C00047959A95E1F75695542F4427579547958A
:1022D000640F751F635D7C4F48E050E0AFEFB0E0E6
:1022E00010162CF5083064F4FA01E01BF10907FD23
:1022F000F395ED0102C0D595C795EA95E2F78C23D9
:10230000E1100DC08095FB01922F3081382331936D
:102310009150D9F7085060587F4F8FEFE1CFFB0104
:10232000922F3081382B31939150D9F7F3CFDF9131
:10233000CF910F91EF9008952F923F924F925F921D
:102340006F927F928F929F92AF92BF92CF92DF92C5
:10235000EF92FF920F931F93CF93DF9300D000D0A3
:102360001F92CDB7DEB79B838A836A3061F5DC01AB
:1023700055962C91559751968D919C91B6E02B9F37
:10238000800D911D1124EA81FB81928B818B108A33
:10239000178681E090E00F900F900F900F900F90B4
:1023A000DF91CF911F910F91FF90EF90DF90CF9031
:1023B000BF90AF909F908F907F906F905F904F9065
:1023C0003F902F90089580EE860F803410F72A8179
:1023D0003B813D832C83D9011F96CD90DC90B0E8E2
:1023E000CB16D1040CF048C0F901A188B288F0E402
:1023F000AF16B1040CF040C0D90155961C91C6012E
:10240000B5E01B9F800D911D112497FD35C0C501BE
:10241000E6E01E9F800D911D112497FD2DC0D9016E
:102420005496FC90549753962C90B4E06B9FF00117
:102430001124EA5EFF4F45905590659074901130DD
:1024400009F050C0460116E0D12CC12C40FC42C01E
:102450004F2DF21040C07694679457944794EFEF55
:10246000CE1ADE0AF6E0CF16D10481F711502FEF15
:10247000821A920A1111E8CFAC81BD8155962C9138
:102480005597422F50E01F968D919C91B6E02B9F5F
:10249000800D911D1124EC81FD81908B8787268909
:1024A000222309F476CF6AEF64039001659F300D13
:1024B000112420583F4F281739070CF06ACFDF014D
:1024C0000190F081E02D0190F081E02D6AE0CD01D6
:1024D00009955FCF422DB5016C0D7D1DC4010E9491
:1024E000E409B9CF812F90E09B838A8396E099839A
:1024F000450196E0392E40FC18C0EF2CF21016C0B2
:1025000076946794579447943A94AA81BB818A0E33
:102510009B1E3110F0CFB981B150B983EA81FB81A4
:10252000CE0EDF1EB111E4CFA7CFE22C012F212F59
:10253000A401B6018C819D810E940C11E1CF0C9405
:102540009C118F929F92AF92BF92CF92DF92EF92A7
:10255000FF92CF93DF9369017A01909343078093B1
:1025600042077093450760934407C5E0D0E08BE1D4
:10257000882E912CA12CB12CC701B601A501940184
:102580000E945E266A317105D1F06F5B83E397E0AC
:102590000E949F12C701B601A50194010E945E2608
:1025A00069017A01219741F7DF91CF91FF90EF9078
:1025B000DF90CF90BF90AF909F908F9008956EE284
:1025C000E5CF0F931F93CF93DF938C01D0E0C0E052
:1025D000F801EC0FFD1F6491662341F083E397E05F
:1025E0000E949C11892B11F02196F2CFCE01DF9130
:1025F000CF911F910F910895CF92DF92EF920F9399
:10260000CF9380912103882301F10E94040B8CE178
:1026100090E0909343078093420789E390E0909382
:1026200045078093440787E897E00E94E11240E065
:1026300068E370E080E190E00E946A1041E068E3A6
:1026400070E086E490E00E946A1080912003882365
:1026500019F18091210381110BC0E12C02E126E3E5
:1026600041E250E065E270E083E397E00E940C11E4
:1026700082E08093480720911C0330911D03409114
:102680001E0350911F0365E270E083E290E00E9418
:10269000A11281E080934807C0911B038091200321
:1026A000811103C08C2F8370F1F4C2FBCC27C0F9D9
:1026B000C0901A038CE0C89E6001112485E2C80E08
:1026C000D11CEC2E03E026E04BE757E060E270E01F
:1026D000C6010E94A50826E041E857E060E370E0EB
:1026E000C6010E94A50810922003CF910F91EF9090
:1026F000DF90CF9008956F927F928F929F92AF92CA
:10270000BF92CF92DF92EF920F93CF93DF9380919E
:102710001B038F50990B63E070E00E94AF268AE3A1
:102720009AEAA3EEBEEE04C0B695A7959795879555
:102730006A95D2F7C82FC1705F9883EA84BD8FE78E
:10274000C89F802D1124809587BD8FEF88BD0E9482
:10275000C50720911B0388E790E0821B91096CE27A
:1027600070E00E94AF263B0188E8A82E84E0B82ED6
:102770009CE1892E912CD12CC12CD0E081E090E0FD
:102780006C147D0411F090E080E08C9FB0018D9F6F
:10279000700D9C9F700D1124645F7F4FEE24E394B5
:1027A00000E228E1A501C4010E94A5088FEFC81A24
:1027B000D80A88E1880E911C80E6A80EB11C83E03F
:1027C000C816D104D9F608E020E248E654E06CE2ED
:1027D00070E084E490E00E94A50880E190E090938E
:1027E0004307809342078AE390E0909345078093E4
:1027F000440787E594E0DF91CF910F91EF90DF9050
:10280000CF90BF90AF909F908F907F906F900C94DF
:10281000E112089590E080E0089597FF0DC022270F
:102820003327281B390B4217130629F024F0480FD1
:1028300090E080E031F408954423E9F38038910575
:10284000D4F760347105B8F79C01240F311D21388D
:10285000310514F040E8481B362F377021E001C0E5
:10286000220F3A95EAF7FB0133E0F595E7953A95A3
:10287000E1F7F695FE2FEE27F795E795E80FF91F9C
:10288000E35DFC4F8081822B81934150D9F7D3CFF8
:10289000BF92CF92DF92EF92FF920F931F93CF934D
:1028A000DF93C0901B03CC2DC37087E4C89FD02C4E
:1028B000112483E0C89F80011124085B1B4EB09057
:1028C000E502E090E302F090E402B11004C0EC2DC8
:1028D000E857FF0B7F01D0E0CC0FDD1FF80184919A
:1028E000835ED80E3196E4918D2D90E0EF70F0E08C
:1028F0003896EE9D9001EF9D300DFE9D300D112418
:1029000046E0359527954A95E1F7821B930B41E008
:10291000BE018F7799270E94E4092896045F1F4F14
:10292000C034D105DCF28091130386FF31C0F1E0A1
:10293000FB1570F1C0FC2CC0C091E202C695C69593
:10294000CB50DD0B1091E102169516951C161D0655
:102950004CF047E1812F8B50990BBC0190E080E057
:102960000E94610747E170E060E01C3028F01433FA
:1029700078F047E16FE370E0CE01DF91CF911F91D6
:102980000F91FF90EF90DF90CF90BF900C940D14BB
:10299000DF91CF911F910F91FF90EF90DF90CF903B
:1029A000BF9008950E94D9298F929F92AF92BF92B3
:1029B000EF92FF920F931F93CF93DF93CDB7DEB7C4
:1029C000A1970FB6F894DEBF0FBECDBF7C01FA0110
:1029D000CB0119A2223008F42AE08E010F5D1F4FAF
:1029E000822E912CB12CA12CBF01A50194010E9433
:1029F0005E26F901CA016A304CF5605DD8016E931C
:102A00008D01232B242B252B79F790E080E0109764
:102A100061F0FD0101900020E9F73197AF014A1BF9
:102A20005B0BBD01C7010E94FE07A1960FB6F8948B
:102A3000DEBF0FBECDBFDF91CF911F910F91FF90F1
:102A4000EF90BF90AF909F908F900895695CD6CF24
:102A5000EF920F93CF93DF9381E09091E6029A304B
:102A600008F480E0C82FD0E09E01220F331F220F10
:102A7000331FC21BD30B282F220F280F220F255ADA
:102A8000BE016E5E7F4FE12C07E040E150E083E342
:102A900097E00E940C11CE014396909343078093D8
:102AA000420781E190E090934507809344078EE4CC
:102AB00094E00E94E11220911003309111034091A3
:102AC000120350E061E170E0CE018D5B9F4F0E94E8
:102AD000A1126DE283E397E00E949F124091E6020B
:102AE00050E070E060E02AE083E397E0DF91CF916F
:102AF0000F91EF900C94D4142F923F924F925F92CB
:102B00006F927F928F929F92AF92BF92CF92DF92FD
:102B1000EF92FF920F931F93CF93DF93909343070E
:102B200080934207709345076093440769017A01D7
:102B3000CA01B90120EC3BE443E050E00E945E266C
:102B400029013A01C701B60120E13EE040E050E032
:102B50000E945E268CE3882E912CA12CB12CCA01F8
:102B6000B901A50194010E945E26D62F272E382E8A
:102B7000092FC701B601A50194010E945E26CA0172
:102B8000B901A50194010E945E26C62F972E5C0113
:102B90008C2E4114510409F03FC0D11150C06A304D
:102BA00028F460E383E397E00E949F122AE04C2F11
:102BB000592DB50183E397E00E94D4146EE283E3BC
:102BC00097E00E949F12C701B60126E030E040E086
:102BD00050E00E945E26CA01B9012AE030E040E0E0
:102BE00050E00E945E26AB01BC012AE083E397E03F
:102BF000DF91CF911F910F91FF90EF90DF90CF90D9
:102C0000BF90AF909F908F907F906F905F904F900C
:102C10003F902F900C94D4142AE0B301A20183E3D7
:102C200097E00E94D4146AE383E397E00E949F1226
:102C3000DA3028F460E383E397E00E949F122AE0F1
:102C40004D2F522D632D702F83E397E00E94D414F3
:102C50006AE383E397E00E949F1229E0281528F099
:102C600060E383E397E00E949F122AE04C2F592DE6
:102C7000B501BCCFCF92DF92EF92FF920F931F93DB
:102C8000CF93DF9380912103882381F10BE010E043
:102C9000C8E1D7E0FE0184918B3141F165E170E03C
:102CA000CE010E94D8257C016C01DD24282F3DEF48
:102CB0003203C0011124805C9F4F9093430780939F
:102CC00042071093450700934407CE010E94E1128A
:102CD0008FEFC81AD80ACC0DDD1D86E090E0E11018
:102CE00002C082E090E0080F191FD4CFDF91CF918E
:102CF0001F910F91FF90EF90DF90CF9008958F92EA
:102D00009F92AF92BF92CF92DF92EF92FF92CF93BA
:102D1000DF938091130384FF4AC010921A038091BD
:102D2000100390911103A0911203B0E08B3622EFB3
:102D300092072AEDA20701F5C5E0D0E020E030E0DF
:102D4000A9019AE1C92ED12CE12CF12CABE1B0E024
:102D50000E944B264B015C010E947725A70196013A
:102D60000E942C269B01AC01280D391D4A1D5B1DBC
:102D7000219761F7DA01C90180931C0390931D0329
:102D8000A0931E03B0931F0384E080930E0381E0A1
:102D90008093210380932003DF91CF91FF90EF90E8
:102DA000DF90CF90BF90AF909F908F9008958F77D6
:102DB00080931303C5E0D0E020E030E0A9018AE170
:102DC000C82ED12CE12CF12CABE1B0E00E944B26B7
:102DD0004B015C010E947725A70196010E942C26D9
:102DE0009B01AC01280D391D4A1D5B1D219761F720
:102DF00020931003309311034093120385E08093D6
:102E00000E03CACFCF92DF92EF92FF920E947B1007
:102E100080911B038F5F80931B03E0910E03F0E012
:102E2000EE0FFF1FEC53FA4F85919491FC01099529
:102E30000E941B256C01990FEE08FF080E94D8071D
:102E4000C616D706E806F90631F06C257D258E25D5
:102E50009F250E94C62580910E03853031F081E0C8
:102E6000FF90EF90DF90CF90089582E0F9CF8091AE
:102E700013038F708093E6021092E4021092E30233
:102E800080E48093E20280E88093E10210922601C0
:102E90001092270110922101EAE2F1E0808332963C
:102EA00091E0EE34F907D1F7E0EAF1E08081807E2D
:102EB0008083359682E0E03EF807C1F710929F01CB
:102EC000EEE4F1E081818F708183349691E0EA38FD
:102ED000F907C1F7809129018F71806C80932901D6
:102EE0008091100390911103A0911203B0E0BC01F6
:102EF000CD016F5F7F4F8F4F9F4F0E94C62510926D
:102F00001B03109222011092E0021092E50281E070
:102F10008093210308950C9437170F931F93CF9339
:102F2000DF9380910E03811142C080EF93E0909374
:102F3000030380930203F999FECF80EF93E00E9490
:102F4000FB2524EF33E030930303209302036F3417
:102F500072448E44934189F5F999FECF4AE050E0DE
:102F600064EF73E080E193E00E94E325C0910203E7
:102F7000D09103032A96D0930303C0930203F999D7
:102F8000FECFCE010E9401268C012296D09303032E
:102F9000C09302030E94D7108017910771F482E05A
:102FA00090E090930103809300031092FF02DF9161
:102FB000CF911F910F910C940E0DE2E1F3E088E0A8
:102FC000DF011D928A95E9F780911303807F2BE63C
:102FD00032EF4AED20931003309311034093120314
:102FE000836080628093130381E090E090930103FB
:102FF000809300038093FF02DACF6F927F929F92BB
:10300000AF92BF92CF92DF92EF92FF920F931F93F6
:10301000CF93DF9390910703911103C0882309F4A4
:10302000C1C0A0900A0322E0922E9A0C10910B03CB
:10303000F0900C036F2C0F2C000C7708630181E0DB
:10304000C81AD108C0910D030C2E000CDD0B22E034
:10305000210FBE0161507109E12C092DA60183E306
:1030600097E00E940C1180910903882331F194E0CC
:10307000B92EB10EE2E06E1A710822974B2DB30102
:10308000CE010E940D1484E08A0DB301680F711DFA
:1030900087FD7A95615071094B2DCE010E940D1468
:1030A000492DB601CE010E946107CE018B0D911D05
:1030B000492DB60101970E946107D0E0C0E087EE7C
:1030C000C82E82E0D82E80910603082E000C990BA2
:1030D000C817D9070CF04AC0F60182819381009786
:1030E00009F441C0AF2C0F2C000CBB0820910D033C
:1030F000022E000C330B245F3F4F40910F03042E30
:10310000000C550BC417D50759F544E050E0241BBB
:10311000350B3093430720934207B0924507A092A6
:1031200044070E94E11280910F03082E000C990BB6
:10313000C817D90771F460910D03062E000C770BA8
:10314000EE24E39405E025E0A50183E397E00E94E7
:103150000C11F6E0FF0E219684E0C80ED11CB3CF0F
:1031600050E040E0D4CFF394F394F5CF809108037E
:103170008823B1F040E150E064EB75E087E197E02F
:103180000E94CF2560912203E6E06E9FB0011124DA
:1031900068557A4F46E050E087E297E00E94CF25DD
:1031A00010920703DF91CF911F910F91FF90EF9045
:1031B000DF90CF90BF90AF909F907F906F900895D9
:1031C0000F931F93CF93DF9380912103882309F4FA
:1031D0004EC082E290E0909343078093420784E0E0
:1031E00090E090934507809344078DE097E00E941C
:1031F000E11240E86CE270E090E080E00E940D1483
:10320000CAE0D0E0D0934307C093420780E390E048
:10321000909345078093440781E097E00E94E11274
:10322000409118035091190370E060E02AE083E3B5
:1032300097E00E94D414D0934307C093420786E3DB
:1032400090E0909345078093440787EF96E00E94B3
:10325000E11220911403309115034091160350910F
:10326000170366E370E08CE490E00E947C15809187
:1032700021030E94FD1780912003882309F444C094
:103280000CE010E0D0E0C0E080910F03082E000CAD
:10329000990B26E530E08C179D0711F422E530E00C
:1032A0008091130390E0AE014D5F5F4F02C0959592
:1032B00087954A95E2F781709927C130D10549F188
:1032C0001CF0C430D105BCF1409113034F7050E0A5
:1032D00070E060E030934307209342071093450766
:1032E000009344072AE083E397E00E94D41460E24D
:1032F00083E397E00E949F1221960A5F1F4FC4301C
:10330000D10511F610922003DF91CF911F910F91FB
:103310000895892B69F487EE96E030934307209354
:10332000420710934507009344070E94E112E4CF3F
:103330008FEE96E0F2CF892B19F48FED96E0EDCF6A
:1033400083EE96E0EACFEF92FF920F931F93CF9315
:10335000DF93F0902103FF2071F00E94040BEE2414
:10336000E39400E222E247E556E060E270E086E0A6
:1033700090E00E94A50880911B038370C82FD0E0C5
:1033800011E0209709F010E02197811102C0C2E0FE
:10339000D0E087E08C9FA0018D9F500D11244E5BE3
:1033A000594FE12E08E027E067E270E088E090E006
:1033B0000E94A50889E08C9FA0018D9F500D1124CB
:1033C000495D594F05E029E062E270E085E190E057
:1033D0000E94A5088F2D0E94FD17809118039091DF
:1033E0001903892BC9F080910F03811115C08091B9
:1033F0001B038170809346072091100330911103C5
:103400004091120350E066E270E088E590E00E948F
:10341000A11281E080934607DF91CF911F910F9118
:10342000FF90EF9008952F923F924F925F926F928C
:103430007F928F929F92AF92BF92CF92DF92EF9244
:10344000FF920F931F93CF93DF9300D01F92CDB7BE
:10345000DEB71091E5021330A9F5109222012091F8
:10346000220190912301299F902D11248091250103
:10347000289F802D112430912401239F202D112479
:10348000222309F425C25F9A23EA24BD909597BDB3
:10349000809588BD109221030F900F900F90DF91BF
:1034A000CF911F910F91FF90EF90DF90CF90BF9041
:1034B000AF909F908F907F906F905F904F903F90D4
:1034C0002F900895809121039091E002992319F0A3
:1034D0000E94FD17C2CF882311F20E94C507E09118
:1034E000E202E695E695F0E02091E1022695269528
:1034F00030E0809121018983882309F43AC1409109
:103500001B0346954695463088F49EE1499FA001ED
:1035100011244B5E5D4FB90167507109EE24E394AD
:103520000FE02FE0CF0107970E94A508EAE2F1E043
:10353000FB83EA83EA81FB81808187FD07C061818B
:1035400070E045E08450990B0E940D142A813B8164
:103550002E5F3F4F3B832A832E54314059F7E0EAD8
:10356000F1E0FB83EA83EA81FB8180818F7149F07E
:10357000CF010E941A0FDC01CB0142E0BD010E9485
:103580000D142A813B812B5F3F4F3B832A83205EB2
:10359000324049F75EE4A52E51E0B52EE3E8F1E0B4
:1035A000FB83EA83D12CC12C67EB262E6DE6362EE9
:1035B0007CE2472E55245394E4E86E2EE3E07E2E01
:1035C000C60165E070E00E94AF26892B09F004C1B6
:1035D0002A813B81295F3F4F3B832A832A58314010
:1035E000229DC001239D900D329D900D1124849D3C
:1035F0009001859D300D949D300D11248091E30242
:103600009091E402821B930BB3010E949B264C0114
:10361000F5018181807F69F17401F8E6EF1AF1E02C
:10362000FF0AF7FE03C0F194E194F10822E6E21AE2
:1036300021E0F20AA401B5018A819B810E94EB0F6F
:103640001E141F040CF4D7C0EA81FB8140814F7027
:10365000F7E04F9FA00111244E505E4FDC011397FD
:10366000CB010397EE24E39407E027E0BD010E941D
:10367000A5088FEFC81AD80A94E0A90EB11CEFE094
:10368000CE16D10409F09CCF60912901462F4295B6
:10369000469547704630D0F4FEE14F9FA0011124BB
:1036A0004B5E5D4F80912801282F221F2227221F69
:1036B0006F71660F622B6750770B8F77EE24E39460
:1036C0000FE02FE08750990B0E94A5080E94481434
:1036D000113009F4C5C008F4B3C0123009F0BFCEF0
:1036E00030911B033A838981882309F4D2C0832F48
:1036F0003F3108F08EE12EE130E0281B3109229F96
:10370000C001239F900D900D11246AE070E00E948B
:10371000AF26CB012EE245E653E068E170E08996E2
:103720000E94A3099A819C3308F499CEE12C07E00A
:103730002BE240E350E06AE270E083E397E00E940E
:103740000C118FEC92E027E330E030934307209395
:10375000420721E330E030934507209344070E945D
:10376000E11241E060E370E08BE290E00E946A10B9
:1037700074C011111AC040911B034C3350F48CE3F8
:1037800090E0841B91096DEF7FEF0E94AF26E60F5A
:10379000F71FB90163507109EE24E39407E027E0B5
:1037A0004BEE51E0CF010397BFCE123091F740911D
:1037B0001B034051550B449FC001459F900D900D38
:1037C000112497FD4F96A5E095958795AA95E1F769
:1037D0000897E80FF91FDDCFEA81FB81858182958B
:1037E0008695877090E00196880F991F880F991F22
:1037F000881A990A0DCF27E0E216F1040CF039CFB0
:10380000F70134E0E316F10414F0E3E0F0E00E2DEC
:10381000000F000F095F2E2F220F37E0321B232FDE
:10382000EE0CFF1CAC014E195F09635071096E0F5D
:103830007F1FEE24E39483E397E00E940C1119CFDD
:1038400080911B0383FF09C020E341EC53E068E152
:1038500070E088E290E00E94A3090E942815FFCD45
:103860008091E3029091E40280312EE0920768F4A7
:103870002FE03EE0281B390B50E040E070E060E0B4
:1038800088E690E00E947C15EACD20E030E0A901B6
:10389000F5CF6A81693208F068E26051770B28E45D
:1038A00045ED52E08CE190E00E94A309EA81EC33FF
:1038B00008F4D5CDE12C07E02BE240E350E06AE2CA
:1038C00070E083E397E00E940C1189EC92E03BCF1B
:1038D0005F98DACD2F923F924F925F926F927F92D4
:1038E0008F929F92AF92BF92CF92DF92EF92FF9210
:1038F0000F931F93CF93DF93CDB7DEB761970FB6CA
:10390000F894DEBF0FBECDBF8091E3029091E40238
:1039100080312EE0920708F0B3C26CE271E00E94A1
:103920009B26892B09F0ACC2862F63E00E948F266C
:10393000092FE92EF12C87E0989FA001112446570A
:103940005E4F598B488B0E94772521E230E040E0A2
:1039500050E00E942C266C5F7F4F8F4F9F4F362F79
:103960003295307FA889B9892C912F70232B2C9305
:10397000E4E09695879577956795EA95D1F763701A
:1039800011968C9111978C7F682B11966C930E94E5
:10399000772529E130E040E050E00E942C266D5F61
:1039A0007F4F8F4F9F4F6F71660F660FE889F989C0
:1039B00081818378682B61830E94772522E030E043
:1039C00040E050E00E942C26A889B98911968C917C
:1039D000119760FB87F911968C930E947725FCE381
:1039E0008F2E912CA12CB12CA50194010E942C2684
:1039F0006C5F7F4F8F4F9F4F6F73E889F98982818A
:103A0000807C682B62830E947725A50194010E9427
:103A10002C266C5F7F4F8F4F9F4F362F3295330F81
:103A2000330F307CA889B98912962C9112972F7385
:103A3000232B12962C93129712E0969587957795E3
:103A400067951A95D1F76F7013968C911397807FB5
:103A5000682B13966C930E94772528E0822E912C78
:103A6000A12CB12CA50194010E942C26862F8295B1
:103A7000880F807EE889F98965816F71682B65837D
:103A80000E94772525E030E040E050E00E942C269F
:103A9000862F8F70A889B9896C91607F682B6C9391
:103AA0000E94772529E730E040E050E00E942C2674
:103AB000645C7F4F8F4F9F4FE889F98966830E942E
:103AC0007725A50194010E942C26862F8770A8894E
:103AD000B98915966C911597687F682B15966C932C
:103AE0000E94772524E030E040E050E00E942C2640
:103AF0006370862F880F880F880FE889F9896581A0
:103B0000677E682B65838091E6029681899FC0015C
:103B1000112468E770E00E94AF26162F611101C0E2
:103B200011E00E94772524E030E040E050E00E9460
:103B30002C2631E0672B682B692B61F5612F70E033
:103B400090E080E00E9450280E94802920E030E030
:103B500040E85FE30E94CA260E941A284B015C01DC
:103B600081E090E0A0E0B0E0F2E08F169104A104C3
:103B7000B1047CF00E947725A50194012150310900
:103B8000410951090E942C26DC01CB010196A11D9F
:103B9000B11D382F812F632F0E948F26182F8F7011
:103BA0006F7097E09E9DF0019F9DF00D1124E657E8
:103BB000FE4F90819F70923008F0FCC18295807F0B
:103BC000682B648387E08E9D90018F9D300D1124BA
:103BD000F901E657FE4F868190E0D901A257BE4F0A
:103BE0006C916F7070E00E94AF266350710921578D
:103BF0003E4FD9018C9187708617170631F028F057
:103C000067708581887F682B658387E08E9DF001D2
:103C10008F9DF00D1124E657FE4F80818F7081300B
:103C200019F0843009F0CBC1123008F4C8C10E94E9
:103C3000772520E230E040E050E00E942C26605ED4
:103C40007F4F8F4F9F4FE12FE150FF0B9F01032EBE
:103C5000000C440B550B0E942C26283008F4ADC1F3
:103C6000283108F027E128502F7087E08E9DF00161
:103C70008F9DF00D1124E657FE4F2295207F838102
:103C80008F70282B2383B5E00B9F80011124000F38
:103C9000111F000F111F025B1E4F9091E2029695BB
:103CA00096958091E10286958695F8017496FE833B
:103CB000ED8347E04E9D90014F9D300D1124A901E9
:103CC00046575E4F5C834B834DE3242E312CD90144
:103CD000A557BE4FB887AF83412C512C3201539466
:103CE000E92FF0E0FA87E987282F30E03C872B871F
:103CF000AB81BC81CC908C2D82958F701196CC902D
:103D0000BC2DB370CB2EC29490EFC922C82AD12CFF
:103D100041018C189D08092C000CAA08BB08D594F9
:103D2000C7940D2C000CEE08FF08C814D904EA044F
:103D3000FB048CF48C189D08AE08BF0841F00E946B
:103D40007725A50194010E942C264B015C01C80C2B
:103D5000D91CEA1CFB1C8C2D8F73F801C080FC2D34
:103D6000F07CCF2EC82AD801CC92EF81F8858081D3
:103D7000869586958F71C82ED12C41018C189D088F
:103D8000092C000CAA08BB08F3E0CF0ED11C0D2CA7
:103D9000000CEE08FF08C814D904EA04FB048CF4F4
:103DA0008C189D08AE08BF0841F00E947725A50138
:103DB00094010E942C264B015C01C80CD91CEA1C02
:103DC000FB1C9C2D9295990F990F907CD8018C919A
:103DD0008F73892B8C9382E0F694E794D794C794E1
:103DE0008A95D1F7BC2DB06FF801B1830E94772579
:103DF000A30192010E942C26D80112966C9350E0E8
:103E000040E0B801888999890E94EB0F6B017C0121
:103E100069857A856C197D09072E000C880B990B32
:103E20000E9452284B015C016B857C856E197F09CD
:103E3000072E000C880B990B0E945228A5019401B3
:103E40000E94492720E030E040E053E40E940D2921
:103E50002BED3FE049E450E40E94A82720E030E049
:103E600040E05FE30E94CA260E941A28F80163839B
:103E70000C5F1F4F2D813E810217130709F038CFC9
:103E8000712C612C1B82BEE42B2EB1E03B2E13E87B
:103E9000412E11E0512EC30165E070E00E94AF2673
:103EA000892B09F0ADC037E0430E511C92012A580E
:103EB000314047EB5DE6249FC001259F900D349F64
:103EC000900D1124ACE2B1E08A9F90018B9F300DE0
:103ED0009A9F300D11248091E3029091E402821B9D
:103EE000930B64E873E00E949B269A838983D10137
:103EF00011968C911197982F907F09F4E4C1E98174
:103F0000FA81E13DF2401CF08F7011968C93809104
:103F1000E502813009F0D7C189819A810697853CF5
:103F2000924008F0D0C149815A81B101C2010E947A
:103F3000EB0F4B015C0178876F839E838D838C012F
:103F4000035011099B0123503109EAE2F1E0AB0172
:103F50004C5F5F4FBC016C5F7F4FD1011196FC90AD
:103F60008F2D807F09F4F7C0B1E0EE34FB0709F430
:103F700003C1808187FD1CC0B18190E08217930747
:103F8000BCF084179507A4F48B2F90E0801791075D
:103F90007CF08617970764F480E880838F2D807FFC
:103FA00080519F2D9F70F92EF82AD1011196FC9215
:103FB0003296D3CF6295607F03CE20E056CE0E942A
:103FC000772547E04E9D90014F9D300D1124A901AA
:103FD00046575E4F6A0124E030E040E050E00E9426
:103FE0002C266F5F7F4F8F4F9F4F6295607FD6016A
:103FF00013968C9113978F70682B13966C9343CE06
:10400000F201858182958695877090E00196880FF0
:10401000991F880F991F29813A81281B390B3A83F0
:10402000298365CF433009F483C0443009F04BC184
:10403000F201F481F295FF70D10113961C91F12CDD
:10404000E12CEF2FF0E0FA87E98729853A85E2161F
:10405000F3060CF078C000320CF075C0101644F472
:10406000202F412F6D817E818F8198850E949E0D2A
:104070003FEFE31AF30A0F5FE8CFD20114960C91D9
:1040800002950F7010E0FF85E3E0FE02F0011124BD
:10409000FA87E987F7FF03C03196FA87E987298510
:1040A0003A85359527953A872987C801959587954B
:1040B000281B2987D12CC12CC016D1060CF003C1B6
:1040C000398530320CF0FFC0131644F4232F4F2DE6
:1040D0006D817E818F8198850E949E0D4FEFC41A5D
:1040E000D40A59855F5F5987E7CFD20114960C91A6
:1040F00002950F70B889B1700B1BED2C2F854F2DD9
:1041000012C0EF85F3E0EF029001112437FF02C0E7
:104110002F5F3F4F35952795D20114960C9102954C
:104120000F70F1014381B501C4010E94C80DCBC0DD
:10413000D20114960C9102950F70B889BB0F2F8590
:10414000201B2B0FDCCFD1011396EC901397DE0CC4
:104150001396DC92B8C0D2018C918F700E94940E9D
:10416000882DA0FA87F980932801C5019695879537
:104170008F7180932901A7C0BB81BF5FBB83F20110
:10418000F581F9872F2F2770D10112968C91E98143
:10419000FA81E80FF11DCF01D20116966C9170E003
:1041A0000E94AF262D5F622F70E00E949B26688BD5
:1041B000892B09F088C0B889BB87F20114811F7070
:1041C000B11708F080C0F091E602FC5F29852695C2
:1041D000269526952370F20FFF870F2F6091E2023C
:1041E0006695669570E068197909072E000C880BB2
:1041F000990B0E9452286B017C016091E102669547
:10420000669570E06A197B09072E000C880B990BE4
:104210000E945228A70196010E94492720E030E021
:1042200040E053E40E940D292BED3FE049E450E4C7
:104230000E94A82720E030E040E05FE30E94CA2609
:104240000E941A28F62ED2011396EC90E294EFE029
:10425000EE22B985B170BD871E868D859E85880F3B
:10426000991F019798E09E0D989FD02C1124F20180
:104270004081FB85F1111BC0D1011396FC92842F64
:104280008F708430A1F4123090F0E12FE150FF0BD9
:104290009F015D2D5203C001539F900D112497FD86
:1042A000019695958795AF2DA81BF101A3834F70BB
:1042B000423009F426CF08F0B5CE442309F4DDCE10
:1042C000413009F412CFBFEF6B1A7B0AE4E02E0EE7
:1042D000311CFFE06F16710409F0DDCD2B81211137
:1042E00008C081E02091E3023091E40220313E4099
:1042F00008F480E061960FB6F894DEBF0FBECDBF24
:10430000DF91CF911F910F91FF90EF90DF90CF90B1
:10431000BF90AF909F908F907F906F905F904F90E5
:104320003F902F900895CF93DF938091FF028823D1
:1043300009F45BC08091000390910103019709F09B
:1043400057C080EF93E09093030380930203F999A1
:10435000FECF4FE452E46EE473E180EF93E00E94FD
:104360001F26809102039091030304969093030308
:1043700080930203F999FECF6091020370910303C9
:104380004AE050E080E193E00E940726C0910203DA
:10439000D09103032A96D0930303C09302030E9493
:1043A000D710F999FECFBC01CE010E94272680913B
:1043B00002039091030302969093030380930203F8
:1043C000C091220382E090E00E94F325C81729F0F3
:1043D0006C2F82E090E00E94112682E090E09093A2
:1043E0000103809300031092FF02DF91CF910895A3
:1043F00084EF93E0BBCF0E9493211092E00283E010
:104400008093E502089580912101882321F0809115
:104410001B038C33B8F10E94040E80912901982F60
:10442000929596959770963040F49F5F9295990F6C
:10443000907E8F71892B809329010E94520F0E94D8
:104440006A1C8091E3029091E402803E20E1920791
:1044500028F401969093E4028093E30280911B0379
:104460008C3380F087FF03C0885080931B0384E067
:104470000E944F07882369F080912101882331F041
:104480000E94371781E08093210308950E94FB2149
:10449000F9CF88E00E944F078823A1F30E94B70E4E
:1044A000F1CF0E94040E0E94110E80912901982FD5
:1044B000929596959770963040F49F5F9295990FDC
:1044C000907E8F71892B809329010E94520F8093D7
:1044D00021010E946A1C2091E3023091E4022F5FC7
:1044E0003F4F3093E4022093E30240911403509134
:1044F000150360911603709117034F5F5F4F6F4F65
:104500007F4F4093140350931503609316037093E9
:10451000170391E09093FF029091210191110AC03D
:10452000811116C088E00E944F07882369F00E941D
:10453000B70E0AC085E00E94940E0E94932110924B
:104540001B0382E08093E50281E0809321030895BC
:1045500080911303806880931303EFCFCF93C091B2
:104560001B03CC33D8F00E94040E0E94110EC837F2
:10457000A9F480911803909119030196909319035F
:1045800080931803C1E0C093FF020E949321C0935F
:10459000E50281E080932103CF91089588E00E9495
:1045A0004F078823B1F30E94B70EF3CF1F920F92EB
:1045B0000FB60F9211242F933F938F939F93AF9336
:1045C000BF938091250390912603A0912703B0917A
:1045D00028033091240323E0230F2D3758F501964B
:1045E000A11DB11D209324038093250390932603DE
:1045F000A0932703B09328038091290390912A0365
:10460000A0912B03B0912C030196A11DB11D8093A5
:10461000290390932A03A0932B03B0932C03BF91FB
:10462000AF919F918F913F912F910F900FBE0F905F
:104630001F90189526E8230F0296A11DB11DD2CF19
:104640000F931F93CF93DF938C0181E090E00E9442
:10465000F32580FF31C08AE090E00E94F3259FEFB0
:10466000980F9E3F48F522E330E0D80150963C93E6
:104670002E931F9728E330E052963C932E93519748
:10468000CBE0D0E0D801ED91FC910190F081E02DDC
:10469000682FC8010995CE010E94F3252196C131EA
:1046A000D10581F70E94820888EE93E0DF91CF91D7
:1046B0001F910F910C942B08DF91CF911F910F91B7
:1046C000089504970C942023EDE2F7E01182108204
:1046D0001382128280E8848380E48583E3E3F7E039
:1046E000138212821186128680E1838710861782D8
:1046F0001586108A1786128A118A81E0838B148AA4
:10470000858B168A80E191E0918380838EE191E030
:10471000958384830895789484B5826084BD84B53C
:10472000816084BD85B5826085BD85B5816085BDAC
:1047300080916E00816080936E0010928100809164
:1047400081008260809381008091810081608093EC
:104750008100809180008160809380008091B10011
:1047600084608093B1008091B00081608093B0003C
:1047700080917A00846080937A0080917A008260D0
:1047800080937A0080917A00816080937A00809192
:104790007A00806880937A001092C10081EC809347
:1047A0007C0088B18E6088B987B1817F87B98BB171
:1047B0008C618BB98AB1837E8AB98AB1806E8AB9DD
:1047C0008BB18F718BB91092B90088E48093B800D7
:1047D0000E94780880E00E946E08C6E1DEE0FE01DB
:1047E00084910E946E082196FEE0C533DF07B9F779
:1047F00084E98093BC008091BC0084FDFCCF81E003
:104800008093B8000E9482080E945E0882FF46C022
:104810005E9A0E945E0884788438D9F45E9888ECA9
:1048200090E00E942B085F9A82E090E00E94F325BE
:104830008F3F29F06FEF82E090E00E94112684EF15
:1048400091E00E942B085F980E945E08847884386B
:10485000D9F30E945E0884718431D9F45E9888ECA3
:1048600090E00E942B085D9A82E090E00E94F32580
:10487000882329F060E082E090E00E94112684EF16
:1048800091E00E942B085D980E945E08847184313B
:10489000D9F388EC90E00E942B08B6CF5E9882E0B6
:1048A00090E00E94F325882391F1219A239A81E0D8
:1048B0008093220380E180933E0710922303E5E377
:1048C000FEE085919491FC010995D6E000E010E0AE
:1048D000FF24F3942FB7F894809125039091260339
:1048E000A0912703B09128032FBF20913F07F82FF5
:1048F000F21B30914007332379F0F0934107109277
:1049000040070115110531F30E940000E3CF10921A
:10491000220321982398CECF30913E07F31788F3D6
:10492000F092400780933F0780913A0790913B07B0
:10493000019690933B0780933A0780914B078093B1
:104940004A070E945E0880934B07E0912303DE9F95
:10495000F0011124E95CF14F85919491FC010995D6
:10496000C82FE0912303DE9FF0011124E75CF14F93
:1049700085919491FC0109950E94820880912303FE
:10498000C81709F4BECFC0932303DC9FF0011124A4
:10499000EB5CF14F85919491FC010995B2CF8F9218
:1049A0009F92AF92BF92CF92DF92EF92FF92CF93FE
:1049B000DF93EC01688179818A819B8161157105A2
:1049C0008105910521F464E279ED8BE597E02DE115
:1049D00033EF41E050E00E942C2649015A019B012F
:1049E000AC01A7EAB1E40E944B266B017C01ACEE5E
:1049F000B4EFA50194010E945926DC01CB018C0D76
:104A00009D1DAE1DBF1DB7FF03C00197A109B04892
:104A100088839983AA83BB839F77DF91CF91FF908F
:104A2000EF90DF90CF90BF90AF909F908F900895C0
:104A30000E94CF24089584E091E00E94CF2408953D
:104A4000B0E0A0E08093040190930501A0930601DB
:104A5000B093070108958F929F92AF92BF92CF9229
:104A6000DF92EF92FF92CF93DF93EC01688179811F
:104A70008A819B81611571058105910521F464E2AC
:104A800079ED8BE597E02DE133EF41E050E00E94B6
:104A90002C2649015A019B01AC01A7EAB1E40E940E
:104AA0004B266B017C01ACEEB4EFA50194010E9492
:104AB0005926C60ED71EE81EF91EF7FE06C081E075
:104AC000C81AD108E10880E8F80AC882D982EA82C7
:104AD000FB82C701B6019F77DF91CF91FF90EF90E6
:104AE000DF90CF90BF90AF909F908F9008958F925E
:104AF0009F92AF92BF92CF92DF92EF92FF9260911E
:104B000008017091090180910A0190910B016115D2
:104B100071058105910521F464E279ED8BE597E05B
:104B20002DE133EF41E050E00E942C2649015A016B
:104B30009B01AC01A7EAB1E40E944B266B017C010A
:104B4000ACEEB4EFA50194010E945926C60ED71E03
:104B5000E81EF91EF7FE06C081E0C81AD108E10878
:104B600080E8F80AC0920801D0920901E0920A0197
:104B7000F0920B01C701B6019F77FF90EF90DF9095
:104B8000CF90BF90AF909F908F9008956093080151
:104B90007093090180930A0190930B010895FB0122
:104BA000DC0102C005900D9241505040D8F70895A5
:104BB000FC010590615070400110D8F780959095E8
:104BC0008E0F9F1F0895DC01CB01FC01F999FECFE8
:104BD00006C0F2BDE1BDF89A319600B40D92415085
:104BE0005040B8F70895F999FECF92BD81BDF89A6B
:104BF000992780B50895A6E1B0E044E050E00C9418
:104C0000E525A8E1B0E042E050E00C94E525DC01A8
:104C1000CB0103C02D910E94122641505040D0F785
:104C20000895262FF999FECF1FBA92BD81BD20BDF0
:104C30000FB6F894FA9AF99A0FBE01960895242FA8
:104C40000E941226252F0E9412260C9427260E94CD
:104C50001126272F0C941226052E97FB1EF4009484
:104C60000E94432657FD07D00E945E2607FC03D012
:104C70004EF40C94432650954095309521953F4F26
:104C80004F4F5F4F089590958095709561957F4F38
:104C90008F4F9F4F08950E948026A59F900DB49F2F
:104CA000900DA49F800D911D11240895B7FF0C94C1
:104CB0004B260E944B26821B930B0895A1E21A2ECD
:104CC000AA1BBB1BFD010DC0AA1FBB1FEE1FFF1FB0
:104CD000A217B307E407F50720F0A21BB30BE40B00
:104CE000F50B661F771F881F991F1A9469F7609547
:104CF0007095809590959B01AC01BD01CF01089501
:104D0000A29FB001B39FC001A39F700D811D11240C
:104D1000911DB29F700D811D1124911D0895991B45
:104D200079E004C0991F961708F0961B881F7A95A2
:104D3000C9F780950895AA1BBB1B51E107C0AA1FA4
:104D4000BB1FA617B70710F0A61BB70B881F991F2C
:104D50005A95A9F780959095BC01CD01089597FBD0
:104D6000072E16F4009407D077FD09D00E949B26E9
:104D700007FC05D03EF4909581959F4F089570955E
:104D800061957F4F0895EE0FFF1F0590F491E02D80
:104D900009945058BB27AA270E94E1260C94CB28DF
:104DA0000E94BD2838F00E94C42820F039F49F3FAB
:104DB00019F426F40C9493280EF4E095E7FB0C9478
:104DC0008D28E92F0E94DC2858F3BA176207730771
:104DD0008407950720F079F4A6F50C94FE280EF4CC
:104DE000E0950B2EBA2FA02D0B01B90190010C01FB
:104DF000CA01A0011124FF27591B99F0593F50F413
:104E0000503E68F11A16F040A22F232F342F44276A
:104E1000585FF3CF469537952795A795F040539562
:104E2000C9F77EF41F16BA0B620B730B840BBAF032
:104E30009150A1F0FF0FBB1F661F771F881FC2F79D
:104E40000EC0BA0F621F731F841F48F487957795B1
:104E50006795B795F7959E3F08F0B0CF9395880F6B
:104E600008F09927EE0F9795879508950E94BD2821
:104E700060F080E891E009F49EEF0E94C42828F0D9
:104E800040E851E071F45EEF0CC00C9493280C9450
:104E9000FE28E92FE0780E94DC2840F3092E052A3D
:104EA000B1F3261737074807590738F00E2E07F8D1
:104EB000E02569F0E025E0640AC0EF6307F800949C
:104EC00007FADB01B9019D01DC01CA01AD01EF93D5
:104ED0000E94BF270E94CB280E9479275F9155230B
:104EE00039F02BED3FE049E450FD49EC0C94CA2623
:104EF0000895DF93DD27B92FBF7740E85FE31616EB
:104F0000170648075B0718F4D92F0E9405299F93BD
:104F10008F937F936F930E94C029E8E6F0E00E9490
:104F200096280E94CB282F913F914F915F910E942C
:104F30002029DD2351F09058A2EA2AED3FE049EC08
:104F40005FE3D0785D270E94E126DF910C94CB28A7
:104F50000E94BC270C94CB280E94C42858F00E94C1
:104F6000BD2840F029F45F3F29F00C948D285111A1
:104F70000C94FF280C9493280E94DC2868F3992352
:104F8000B1F3552391F3951B550BBB27AA27621745
:104F90007307840738F09F5F5F4F220F331F441F52
:104FA000AA1FA9F335D00E2E3AF0E0E832D0915086
:104FB0005040E695001CCAF72BD0FE2F29D0660F73
:104FC000771F881FBB1F261737074807AB07B0E8B6
:104FD00009F0BB0B802DBF01FF2793585F4F3AF0BC
:104FE0009E3F510578F00C948D280C94FF285F3F6C
:104FF000E4F3983ED4F3869577956795B795F79542
:105000009F5FC9F7880F911D9695879597F9089529
:10501000E1E0660F771F881FBB1F621773078407C5
:10502000BA0720F0621B730B840BBA0BEE1F88F7D4
:10503000E09508950E9421286894B1110C94FF28EE
:1050400008950E94E42888F09F5798F0B92F992777
:10505000B751B0F0E1F0660F771F881F991F1AF063
:10506000BA95C9F714C0B13091F00E94FE28B1E0A2
:1050700008950C94FE28672F782F8827B85F39F0A1
:10508000B93FCCF3869577956795B395D9F73EF4FC
:1050900090958095709561957F4F8F4F9F4F0895A4
:1050A000E89409C097FB3EF49095809570956195C2
:1050B0007F4F8F4F9F4F9923A9F0F92F96E9BB2778
:1050C0009395F695879577956795B795F111F8CFF4
:1050D000FAF4BB0F11F460FF1BC06F5F7F4F8F4F5F
:1050E0009F4F16C0882311F096E911C0772321F055
:1050F0009EE8872F762F05C0662371F096E8862FED
:1051000070E060E02AF09A95660F771F881FDAF743
:10511000880F9695879597F9089597F99F6780E886
:1051200070E060E008959FEF80EC0895DF93CF93E7
:105130001F930F93FF92EF92DF927B018C01689493
:1051400006C0DA2EEF010E942029FE01E894A59105
:105150002591359145915591A6F3EF010E94E126E5
:10516000FE019701A801DA9469F7DF90EF90FF90B4
:105170000F911F91CF91DF91089500240A94161684
:10518000170618060906089500240A941216130635
:10519000140605060895092E0394000C11F48823C3
:1051A00052F0BB0F40F4BF2B11F460FF04C06F5FDF
:1051B0007F4F8F4F9F4F089557FD9058440F551FB5
:1051C00059F05F3F71F04795880F97FB991F61F089
:1051D0009F3F79F087950895121613061406551F00
:1051E000F2CF4695F1DF08C0161617061806991F6C
:1051F000F1CF86957105610508940895E894BB2761
:1052000066277727CB0197F908959B01AC0160E0F1
:1052100070E080E89FE30C94A8270E9420290C945A
:10522000CB280E94BD2838F00E94C42820F0952386
:1052300011F00C948D280C94932811240C94FF28C1
:105240000E94DC2870F3959FC1F3950F50E0551F25
:10525000629FF001729FBB27F00DB11D639FAA27CB
:10526000F00DB11DAA1F649F6627B00DA11D661F1A
:10527000829F2227B00DA11D621F739FB00DA11D3B
:10528000621F839FA00D611D221F749F3327A00DF5
:10529000611D231F849F600D211D822F762F6A2F91
:1052A00011249F5750409AF0F1F088234AF0EE0FF6
:1052B000FF1FBB1F661F771F881F91505040A9F723
:1052C0009E3F510580F00C948D280C94FF285F3F81
:1052D000E4F3983ED4F3869577956795B795F7955F
:1052E000E7959F5FC1F7FE2B880F911D96958795D7
:1052F00097F9089519F416F40C9493280C94C42982
:105300000E94E428B8F39923C9F3B6F39F57550BCD
:1053100087FF0E94D2290024A0E640EA900180582D
:105320005695979528F4805C660F771F881F20F0AC
:1053300026173707480730F4621B730B840B2029AC
:1053400031294A2BA69517940794202531254A2701
:1053500058F7660F771F881F20F026173707480772
:1053600030F4620B730B840B200D311D411DA09591
:1053700081F7B901842F9158880F969587950895E4
:105380009B01AC010C940D299F3F31F0915020F40A
:10539000879577956795B795880F911D9695879511
:1053A00097F9089591505040660F771F881FD2F7E4
:1053B000089581E090E0F8940C94DE29F894FFCFF2
:1053C0002A01A0010100000001000000000000000F
:1053D0009C11FE070A1409142023FCFF000061231E
:00000001FF
