:100000000C941D030C9445030C9445030C94450378
:100010000C9445030C9445030C9445030C94450340
:100020000C9445030C9445030C9445030C94450330
:100030000C9445030C9445030C9445030C94450320
:100040000C94BC070C9445030C9445030C94450395
:100050000C9445030C9445030C9445030C94450300
:100060000C9445030C94450300000000003E5B4FD8
:100070005B3E3E6B4F6B3E1C3E7C3E1C183C7E3C08
:10008000181C577D571C1C5E7F5E1C00183C180016
:10009000FFE7C3E7FF0018241800FFE7DBE7FF30A6
:1000A000483A060E2629792926407F050507407F14
:1000B00005253F5A3CE73C5A7F3E1C1C08081C1C87
:1000C0003E7F14227F22145F5F005F5F06097F017D
:1000D0007F006689956A606060606094A2FFA29468
:1000E00008047E040810207E201008082A1C080836
:1000F0001C2A08081E101010100C1E0C1E0C303884
:100100003E3830060E3E0E06000000000000005F84
:1001100000000007000700147F147F14242A7F2AA0
:100120001223130864623649562050000807030062
:10013000001C2241000041221C002A1C7F1C2A08AE
:10014000083E080800807030000808080808000011
:1001500060600020100804023E5149453E00427F85
:10016000400072494949462141494D331814127FD4
:100170001027454545393C4A494931412111090774
:100180003649494936464949291E000014000000F5
:1001900040340000000814224114141414140041C7
:1001A00022140802015909063E415D594E7C121184
:1001B000127C7F494949363E414141227F414141BC
:1001C0003E7F494949417F090909013E4141517337
:1001D0007F0808087F00417F41002040413F017FA8
:1001E000081422417F404040407F021C027F7F0470
:1001F00008107F3E4141413E7F090909063E4151B9
:10020000215E7F09192946264949493203017F01A8
:10021000033F4040403F1F2040201F3F4038403FA9
:10022000631408146303047804036159494D4300BF
:100230007F4141410204081020004141417F0402F6
:10024000010204404040404000030708002054548D
:1002500078407F284444383844444428384444286B
:100260007F385454541800087E090218A4A49C78BE
:100270007F0804047800447D40002040403D007F1A
:100280001028440000417F40007C047804787C08FA
:100290000404783844444438FC18242418182424CE
:1002A00018FC7C08040408485454542404043F44B3
:1002B000243C4040207C1C2040201C3C4030403CE2
:1002C00044281028444C9090907C4464544C440042
:1002D00008364100000077000000413608000201A6
:1002E0000204023C2623263C1EA1A161123A404092
:1002F000207A385454555921555579412154547810
:1003000041215554784020545579400C1E527212A8
:100310003955555559395454545939555454580030
:1003200000457C410002457D420001457C40F029AA
:100330002429F0F0282528F07C54554500205454F9
:100340007C547C0A097F493249494932324848483D
:1003500032324A4848303A4141217A3A4240207884
:10036000009DA0A07D39444444393D4040403D3C7F
:1003700024FF2424487E4943662B2FFC2F2BFF09A2
:1003800029F620C0887E0903205454794100004496
:100390007D413048484A32384040227A007A0A0A81
:1003A000727D0D19317D2629292F282629292926F4
:1003B00030484D4020380808080808080808382F39
:1003C00010C8ACBA2F102834FA00007B00000814C3
:1003D0002A142222142A14089500220095AA0055F6
:1003E00000AAAA55AA55AA000000FF00101010FF8D
:1003F00000141414FF001010FF00FF1010F010F094
:10040000141414FC001414F700FF0000FF00FF1484
:1004100014F404FC141417101F10101F101F1414D0
:10042000141F00101010F0000000001F101010101A
:100430001F10101010F010000000FF10101010100E
:1004400010101010FF10000000FF140000FF00FF4C
:1004500000001F10170000FC04F4141417101714E8
:1004600014F404F40000FF00F7141414141414140A
:10047000F700F7141414171410101F101F1414147D
:10048000F4141010F010F000001F101F0000001FE7
:1004900014000000FC140000F010F01010FF10FF1A
:1004A000141414FF141010101F00000000F010FFAF
:1004B000FFFFFFFFF0F0F0F0F0FFFFFF0000000093
:1004C00000FFFF0F0F0F0F0F38444438447C2A2AD7
:1004D0003E147E02020606027E027E0263554941F8
:1004E000633844443C04407E201E2006027E020203
:1004F00099A5E7A5991C2A492A1C4C7201724C3017
:100500004A4D4D303048784830BC625A463D3E49ED
:100510004949007E0101017E2A2A2A2A2A44445F91
:10052000444440514A444040444A51400000FF0185
:1005300003E080FF000008086B6B08361236243693
:10054000060F090F060000181800000010100030F8
:1005500040FF0101001F01011E00191D1712003C80
:100560003C3C3C0000000000F0F89C8E8783878EA6
:100570009CF8F00000FEFF0303030303070EFCF8E2
:100580000000FEFF0303030303070EFCF80000FF57
:10059000FF00000000000000FFFF0000FEFF83835B
:1005A000838383C7EE7C380000F8FC0E0703030347
:1005B000070EFCF800003F7FE0C08080C0E07F3F76
:1005C000FFFF01010101010101FFFF0000FFFF0C1E
:1005D0000C0C0C1C3E77E3C100007FFFC0C0C0C004
:1005E000C0E0703F1F00001F3F70E0C0C0C0E0705F
:1005F0003F1F00007FFFC1C1C1C1C1E3773E1C00A6
:10060000001F3F70E0C0C0C0E0703F1F000000004E
:100610000001FFFF01000000AED5F0A83FD300406D
:100620008D14A1C8DA1281CFD9F1DB40A4A6AF2086
:100630000021007F22000700D01011241FBECFEF41
:10064000D8E0DEBFCDBF11E0A0E0B1E0E0E4FEE223
:1006500002C005900D92AC37B107D9F726E0ACE7A0
:10066000B1E001C01D92A130B207E1F713E0CDE186
:10067000D3E004C02197FE010E943212CC31D10791
:10068000C9F70E944A080C941E170C94000080E0E1
:10069000E1E0F2E081118FEF002481938193819357
:1006A00081930394D1F708950E944703EAEEF1E0A5
:1006B000128A118A108A17860895CF92DF92EF92DC
:1006C000FF92BC0190E080E00E9446136B017C0128
:1006D00020E030E040E05FE30E94D41320E034E209
:1006E00044E759E40E943912A70196010E94A5121D
:1006F0000E941713615071098AE08093E90180E438
:10070000809380007093890060938800FF90EF9041
:10071000DF90CF9008953FB7F8948091E5019091D4
:10072000E601A091E701B091E80126B5A89B05C0BC
:100730002F3F19F00196A11DB11D3FBFBA2FA92F60
:10074000982F8827BC01CD01620F711D811D911D5D
:1007500042E0660F771F881F991F4A95D1F70895C9
:10076000AF92BF92CF92DF92EF92FF920F931F93BF
:10077000CF93DF936C017B018B01040F151FEB01FD
:100780005E01AE18BF08C017D10759F06991D601B4
:10079000ED91FC910190F081E02DC6010995892B26
:1007A00079F7C501DF91CF911F910F91FF90EF90E5
:1007B000DF90CF90BF90AF9008958F929F92AF92AD
:1007C000BF92CF92DF92EF92FF926C01F12CE12C5D
:1007D0000E948B034B015C010E948B03681979090D
:1007E0008A099B09683E734081059105A8F321E0C1
:1007F000C21AD108E108F10888EE880E83E0981E3D
:10080000A11CB11CC114D104E104F10429F7FF902B
:10081000EF90DF90CF90BF90AF909F908F90089512
:1008200033990CC080E84A9B8061319B80624B9B6E
:1008300080644C9B8860329B8460089580E0F3CF95
:100840008093BB0084E88093BC008091BC0087FF4C
:10085000FCCF089584EA8093BC008091BC0087FFA0
:10086000FCCF88E70C942004CF93C82F0E942A0461
:1008700080E48093BB0084E88093BC00E1E0F2E078
:100880009091BC0097FFFCCF91919093BB00809317
:10089000BC00CC2319F0DF0111971C9296E0E130E7
:1008A000F90771F78091BC0087FFFCCF84E9809342
:1008B000BC008091BC0084FDFCCFCF91089580E006
:1008C0000C94340480389105B4F5480F592F511D0C
:1008D0004138510514F040E850E0481BFB0177FD1A
:1008E000379633E0F595E7953A95E1F7F695FE2FC3
:1008F000EE27F795E795E80FF91FEF5FFD4F67705B
:10090000772781E090E001C0880F6A95EAF7382FD9
:10091000213041F4415078F08191DF011197832B10
:100920008C93F8CF8095415030F09191DF01119771
:1009300098239C93F8CF089580389105B8F46034DB
:100940007105A0F420E191E061FD94E060FD990F54
:1009500062FD9295687F269FD0011124A80FAF5F9A
:10096000BD4F8C9140FF03C0892B8C9308959095C7
:100970008923FBCF6F927F928F929F92AF92BF920B
:10098000CF92DF92EF92FF920F93CF93DF934C01C0
:10099000EB01E42EC22E202F0E946204CC0EDD2E2D
:1009A000D11CB60161507109603471052CF4202FFF
:1009B0004E2DC4010E9462043E01560181E4C81616
:1009C000D1041CF080E4A82EB12C6A147B044CF4F2
:1009D000402FB301C4010E949C048FEF681A780A6B
:1009E000ECCFE80CF92CF11C81E0E81AF108CA15EB
:1009F000DB053CF4402FBE01C7010E949C042196F8
:100A0000F6CFDF91CF910F91FF90EF90DF90CF90D5
:100A1000BF90AF909F908F907F906F9008952F928E
:100A20003F924F925F926F927F928F929F92AF927E
:100A3000BF92CF92DF92EF92FF920F931F93CF93CB
:100A4000DF9300D01F92CDB7DEB79B838A837B01F3
:100A50006A0109838901061B170B17FF03C0119553
:100A60000195110946018A819B81881A990A97FE8E
:100A700003C0919481949108801691065CF49C2D9A
:100A80008D2D6901292F382F9A818B81FB82EA8273
:100A9000E92EF82E8A819B81C816D9065CF49E2D1A
:100AA0008F2D7901292F382F9A818B81DB82CA8281
:100AB000C92ED82E16018A819B81281A390A29014C
:100AC0004E185F0857FE03C05194419451083101FC
:100AD00037FE03C09FEF691A790A759467948FEF08
:100AE000E216F3060CF481E0A82E880FBB088A8179
:100AF0009B81C816D906CCF04981BC01C70180167C
:100B000091061CF0B7018A819B810E949C046418A5
:100B1000750877FE04C0EA0CFB1C620C731C8A810A
:100B20009B8101969B838A83E2CF0F900F900F9059
:100B3000DF91CF911F910F91FF90EF90DF90CF90B9
:100B4000BF90AF909F908F907F906F905F904F90ED
:100B50003F902F9008952F923F924F925F926F9205
:100B60007F928F929F92AF92BF92CF92DF92EF923D
:100B7000FF920F931F93CF93DF93CDB7DEB72A97E2
:100B80000FB6F894DEBF0FBECDBF9A8389836A305B
:100B900061F5DC0155968C91B8E08B9F9001112492
:100BA000E981FA8181899289820F931F928B818BCF
:100BB000108A178681E090E02A960FB6F894DEBF7F
:100BC0000FBECDBFDF91CF911F910F91FF90EF909E
:100BD000DF90CF90BF90AF909F908F907F906F905D
:100BE0005F904F903F902F9008956D3019F32981B9
:100BF0003A813A872987D9011F96AD90BC90B0E819
:100C0000AB16B1040CF07BC0F901C188D288F0E4C6
:100C1000CF16D1040CF073C0D90155966C9055973E
:100C200045E09501649E200D311D11241216130616
:100C30000CF065C0262C312C910153E0220F331F9C
:100C40005A95E1F72C0D3D1D121613060CF057C0F6
:100C50005496BC91BB83E985FA85F389FC83649F34
:100C6000B00111249B0128593F4F3A832983712CED
:100C7000E981FA818491F5E07F1201C080E04601AC
:100C800038E0532E282F30E03E832D834C8080FFA8
:100C90004B80411004C03B818C813817E1F010E09B
:100CA00000E00615C0F4D501A00FB11FB887AF83CF
:100CB000F12CE12CE61460F4B701680D791D442D88
:100CC0008F8198850E949C04BFEFEB1AFB0AF2CF3C
:100CD0000F5F1F4FE6CF8D819E81959587955A9422
:100CE000820C931C5110CECF7394E981FA81319616
:100CF000FA83E983A20CB31CF6E07F12B9CFA98571
:100D0000BA8555962C915597422F50E01F968D919C
:100D10009C91B6E02B9F800D911D1124E985FA85E9
:100D2000908B87872689222309F444CF6AEF6403D6
:100D30009001659F300D112420583F4F2817390727
:100D40000CF038CFDF010190F081E02D0190F081AF
:100D5000E02D6AE0CD0109952DCF0895089590E02A
:100D600080E00895CF92DF92EF92FF920F931F934E
:100D7000CF93DF93EB01BC0190E080E00E9446132B
:100D80006B017C0120E030E040E05FE30E94D4137F
:100D900020E034E244E759E40E943912A7019601A9
:100DA0000E94A5120E9417136150710900E810E01B
:100DB00080E4F80180837093890060938800CE01FD
:100DC0000E94DD031092E901F8011082DF91CF91BA
:100DD0001F910F91FF90EF90DF90CF900895EF92C9
:100DE000FF921F93CF93DF937C01D0E0C0E011E02E
:100DF0008FE090E00E94DD030E94100483FF0FC08B
:100E00001093DB018091DA01811110C010937C01F5
:100E100081E0DF91CF911F91FF90EF9008950E94A4
:100E2000100482FDEDCF1092DB0180E08093DA01A7
:100E30002196EC16FD06E1F680E0EBCFAF92BF9273
:100E4000CF92DF92EF92FF920F93CF93DF93809137
:100E5000C20100E021E04BE06FE370E090E00E940F
:100E6000BA04C091BE01D091BF01E090BC01F090E6
:100E7000BD0140E0BE01C7010E949C0467018FEFE5
:100E8000C81AD80A40E0BE01C6010E949C042196FF
:100E900040E0BE01C7010E949C0440E0BE01C601C3
:100EA0000E949C0486E38093C2018CE390E09093BF
:100EB000BF018093BE011092D7011092D60110920B
:100EC000D90183E8C82E81E0D82EC2E0D0E0B12C51
:100ED000A12CF12CE12CF601EE0DFF1D108201E09A
:100EE00024E048E0BE01C5010E94BA048FEFE81A71
:100EF000F80A8AE0A80EB11C8DE0E816F10459F753
:100F00008DE0C80ED11C2696CA31D10501F7DF91BC
:100F1000CF910F91FF90EF90DF90CF90BF90AF9067
:100F20000C945F04FC0101900020E9F73197AF01B8
:100F3000481B590BBC018AEE91E00C94B0030E944F
:100F400041140C949111FF920F931F93CF93DF9351
:100F5000EC01F62E08811981C8010E949111F81642
:100F600021F06F2DC8010E949911CE01DF91CF9120
:100F70001F910F91FF9008951F920F920FB60F923D
:100F800011242F933F938F939F93AF93BF9380919F
:100F9000E1019091E201A091E301B091E40130916F
:100FA000E00123E0230F2D3758F50196A11DB11D57
:100FB0002093E0018093E1019093E201A093E3018B
:100FC000B093E4018091E5019091E601A091E701E1
:100FD000B091E8010196A11DB11D8093E5019093A8
:100FE000E601A093E701B093E801BF91AF919F9113
:100FF0008F913F912F910F900FBE0F901F901895DA
:1010000026E8230F0296A11DB11DD2CF0F931F9387
:10101000CF93DF938C0181E090E00E94A10780FFD5
:1010200031C08AE090E00E94A1079FEF980F9E3F99
:1010300048F522E330E0D80150963C932E931F9759
:1010400028E330E052963C932E935197CBE0D0E0CA
:10105000D801ED91FC910190F081E02D682FC8013D
:101060000995CE010E94A1072196C131D10581F7D2
:101070000E945F0488EE93E0DF91CF911F910F9162
:101080000C94DD03DF91CF911F910F910895049788
:101090000C940608CF93DF93CDB7DEB7A1970FB6B8
:1010A000F894DEBF0FBECDBF789484B5826084BD56
:1010B00084B5816084BD85B5826085BD85B581605C
:1010C00085BD80916E00816080936E0010928100DA
:1010D0008091810082608093810080918100816095
:1010E0008093810080918000816080938000809156
:1010F000B10084608093B1008091B00081608093E2
:10110000B00080917A00846080937A0080917A00A8
:10111000826080937A0080917A00816080937A0067
:1011200080917A00806880937A001092C10081ECEF
:1011300080937C0088B18E6088B987B1817F87B940
:101140008BB18C618BB98AB1837E8AB98AB1806E8A
:101150008AB98BB18F718BB91092B90088E48093F2
:10116000B8000E942A0480E00E94200408E116E0F2
:10117000F80184910E9420040F5F1F4FF6E00733AF
:101180001F07B1F784E98093BC008091BC0084FD07
:10119000FCCF81E08093B8000E945F0402E010E081
:1011A0000E94100482FF3EC05E9A0E941004847860
:1011B0008438B9F45E9888EC90E00E94DD035F9A71
:1011C0001A8309836FEFCE0101960E94A30784EF73
:1011D00091E00E94DD035F980E94100484788438B7
:1011E000D9F30E94100484718431B9F45E9888ECBC
:1011F00090E00E94DD035D9A1A83098360E0CE01CE
:1012000001960E94A30784EF91E00E94DD035D98A0
:101210000E94100484718431D9F388EC90E00E941C
:10122000DD03BECF5E9882E090E00E94A107882394
:1012300009F478C0219A239A81E090E00E94A107E6
:10124000082F0470702E81FF0EC001115D9A00EF0F
:101250001FEFE8E0EE2EF12C0E94100486FF65C01F
:101260005D985F985E9882E390E00E94DD030E94A3
:1012700010048111F8CF109280008AE080938100E1
:1012800089E18093F501809164008E7F80936400F2
:1012900080917A00806480937A0080917A0086FD44
:1012A000FCCF00917800109179000E948B03AB0174
:1012B000BC01C801B0E0A0E0DC01992788278C01BF
:1012C0009D01040F151F261F371FC901B80120916A
:1012D000640021602093640061157105810591050A
:1012E00011F00E9488112FB7F8948091E10190913C
:1012F000E201A091E301B091E4012FBF2091F6013A
:10130000182F121B3091F701332309F4A0C010935A
:10131000F8011092F70180E090E0892B21F30E9400
:101320000000E1CF2198239887CF772029F004305F
:10133000110511F45D985F9A81E00E9434049801D0
:1013400017FF04C022273327201B310B27703327B8
:10135000C80117FD079673E0959587957A95E1F793
:1013600017FF05C00197A701421B530B9A01AC015F
:101370005695542F4427579547954F5F5D4FB0E0E2
:10138000A0E02701421A530A8F3F6FEF96070CF433
:101390003BC05A01E4E9AE0EB11C6A0170E060E0A6
:1013A000FD01E859FA4F4F018F3F980779F0F4019A
:1013B000E60FF71FE491F0E01F01022E01C0220C9E
:1013C0000A94EAF7F60164882628248A2115310553
:1013D00081F0F401E60FF71FE491F0E01F01042C07
:1013E00002C0359427940A94E2F7F501608026281C
:1013F00020826F5F7F4FFFEFAF1ABF0AEFEFCE1A69
:10140000DE0A6835710581F60196A85ABF4F40582B
:101410005F4FA03BB10509F0B7CF0E945F048FE09A
:1014200090E00E94DD030F5F1F4F0931110509F0A5
:1014300013CF772011F05F985E9A80E991E00E94C7
:10144000DD035E988AEE91E00E9406080CCF309191
:10145000F501131708F45FCF21E02093F701809383
:10146000F6018091F1019091F20101969093F201C1
:101470008093F1018091E901882339F081508093B4
:10148000E901811102C010928000A0E34A2E512C84
:10149000F2E0FF2E11E08091DF0181110CC10E946A
:1014A000540320E130E03093FA012093F90146E142
:1014B00050E05093FC014093FB01F092FF018EE15C
:1014C00091E00E9492071093FF010E945F0489E15E
:1014D00090E00E94EF068111E5C005E08FE190E009
:1014E0009093FA018093F901E5E3F0E0F093FC01B9
:1014F000E093FB0187E291E00E9492070E945F0463
:1015000082E390E00E94EF068111CCC02FE130E031
:101510003093FA012093F90145E350E05093FC0128
:101520004093FB0183E391E00E9492070E945F04D5
:1015300089E190E00E94EF068111B4C0015071F67C
:101540001092DF010E94540380E290E09093FA0130
:101550008093F9011092FC011092FB018FE391E05E
:101560000E9492070E945F0406E510E058E0C52E35
:10157000D12CF12CE12C6BE4662E61E0762E76EC1A
:10158000A72E71E0B72EE8E18E2E912CFFEFEF1A17
:10159000FF0AFF92EF927F926F92BF92AF920E94EA
:1015A00046149092FA018092F901D092FC01C09207
:1015B000FB0186EC91E00E9492070E945F04C80143
:1015C0000E94A107382EC80101960E94A1070F9022
:1015D0000F900F900F900F900F902FEF321265C069
:1015E0008F3F09F062C01092DD011092DC01C8014A
:1015F00002960E94A107382E8093C301C80103966A
:101600000E94A107282E8093C401C80104960E945D
:10161000A1078093C5012091DC013091DD012115E6
:10162000310579F13F932F93282F082E000C330BAF
:101630003F938F93822D022C000C990B9F932F9236
:10164000832D032C000C990B9F933F924FE451E0A4
:101650005F934F93BF92AF920E9446145092FA014B
:101660004092F901D092FC01C092FB0186EC91E01E
:101670000E9492070E945F040FB6F894DEBF0FBE6F
:10168000CDBF98E0C90ED11C0B5F1F4FE7E0EE16EF
:10169000F10409F07BCF8CE291E00E94EF06809389
:1016A000DF01F6CE1093DF01F6CE932D9093DD018E
:1016B0008093DC019CCF8091DE0181110DC00E94DE
:1016C000540311E0109305010E941E071092DD01E2
:1016D0001092DC011093DE0110910401112309F432
:1016E00005C31091C20100E021E04BE06FE370E020
:1016F000812F90E00E94BA04143738F40E9410043D
:1017000086FF03C01E5F1093C2011091C201112316
:1017100039F00E94100485FF03C012501093C201DB
:101720008091C20101E021E04BE06FE370E090E0C6
:101730000E94BA040E94100483FD04C00E94100499
:1017400082FF58C081E08093DB019091DA01911112
:1017500053C09091D901992309F44EC01092D80139
:101760008093C10184E390E09093FA018093F901A2
:101770008DE290E09093FC018093FB0189E591E07C
:101780000E9492070E945F04CC24C3941091C1016F
:10179000112391F186E990E00E94DD030E9410047C
:1017A00083FD04C00E94100482FF77C0C092C00174
:1017B000D090D801D11074C0D090D901DD2009F4A7
:1017C00072C004E310E04DE2E42EF12C40E0B701DA
:1017D000C8010E949C049FEFE91AF90AE8E3EE169B
:1017E000F104A1F70F5F1F4F0235110561F7109249
:1017F000C10156C01092DB018091DB018093DA01B8
:10180000E090BE01F090BF010091BC011091BD01BC
:1018100040E0B701C8010E949C046801FFEFCF1AA5
:10182000DF0A40E0B701C6010E949C0457012FEF78
:10183000A21AB20A40E0B501C8010E949C0440E02F
:10184000B501C6010E949C042091BB012F5F20932B
:10185000BB01C090C201D12C8091D901882309F429
:101860000AC28091020190910301AC0197FF04C06C
:1018700044275527481B590B4230510509F088C1B0
:1018800097FD019695958795080F191F20FF0DC0AC
:101890001093BD010093BC010EC01092C001D12C69
:1018A000D092D80173CFD12EFBCF800F911F909390
:1018B000BD018093BC018091000190910101E80E6F
:1018C000F91EF092BF01E092BE012091BC0120936D
:1018D000BA012E5F2093B901E092B80122E02E0DEB
:1018E0002093B7011E141F048CF022E030E03093E7
:1018F000BF012093BE0191958195910990930101BB
:10190000809300018BE092E00E945D038091BE0114
:101910009091BF01803491058CF100E021E04BE013
:101920006FE370E0C6010E94BA0486E38093C201AF
:101930008CE390E09093BF018093BE011092D90197
:101940008091040181508093040164EF71E08FEA7B
:1019500090E00E94B2060E94391122E030E040E09F
:1019600050E00E94A711672B682B692B09F013C167
:1019700081E090E090930301809302018091BC018B
:101980009091BD0118161906ACF082E090E090939A
:10199000BD018093BC01809102019091030191955A
:1019A0008195910990930301809302018BE092E06D
:1019B0000E945D038091BC019091BD018E3791051D
:1019C000ACF08CE790E09093BD018093BC018091D6
:1019D00002019091030191958195910990930301E2
:1019E000809302018BE092E00E945D038091BC0134
:1019F0009091BD012091C20130E0AC014F5F5F4F7B
:101A0000421753070CF440C0A901445F5F4F4817C9
:101A10005907D4F14091BE015091BF014D53510976
:101A20004430510588F540910001509101015195D4
:101A30004195510950930101409300012A5F3F4FA6
:101A4000821B930B63E070E00E940A127093030103
:101A500060930201672BA1F40E94391122E030E06B
:101A600040E050E00E94A7116130710581059105A9
:101A700009F094C081E090E090930301809302010B
:101A800088EC90E00E945D0303E8802E01E0902E38
:101A900082E0482E512CFF24F3949AE0292E16E080
:101AA000E12EEF0C10E0D12CC12CF401EC0DFD1D4A
:101AB0008081BAE0BB2EB10E81117AC010938201F1
:101AC000B0928101F0928001E0927F016090B801B4
:101AD000E61408F46DC03090B7013F1408F468C0F4
:101AE000A090BA01BA1408F463C07090B9017116DD
:101AF00008F45EC0209105018091DC019091DD0128
:101B0000229D800D911D11249093DD018093DC01B5
:101B10008091D6019091D70101969093D70180933F
:101B2000D60131E0308300E024E048E0B2012C9C93
:101B3000C0012D9C900D11240E94BA04E31410F0F2
:101B40006F1478F580917E0181111DC020910001F4
:101B50003091010188279927821B930B90930101F3
:101B6000809300018091BE019091BF01821B930B75
:101B70009093BF018093BE0141E040937E0185E0D8
:101B800091E00E945D03A11698F0B71460F010C0B8
:101B9000080F191F7DCE8FEF9FEFECCE8FEF9FEFD9
:101BA0006BCFA11690F780917E01882309F445C080
:101BB0006FEFC61AD60A1B2D123809F076CF8DE0CA
:101BC000880E911C96E0490E511CFE2CE9E1EE12A4
:101BD00066CF10927E010091BE011091BF01E0908E
:101BE000BC01F090BD0141E0B801C7010E949C0416
:101BF00067012FEFC21AD20A41E0B801C6010E9464
:101C00009C040F5F1F4F41E0B801C7010E949C0474
:101C100041E0B801C6010E949C048091D6019091D8
:101C2000D701C49739F4809105018F5F8093050136
:101C30000E941E070E945F046ECB2091020130912A
:101C4000030188279927821B930B909303018093AC
:101C500002018091BC019091BD01821B930B909376
:101C6000BD018093BC0151E050937E0185E091E07D
:101C70000E945D039DCFF5E0CF0ED11CD092BD0137
:101C8000C092BC010E94100483FD04C00E94100495
:101C900082FF22C081E080937D0190917C019111AF
:101CA0001DC08093D9010E94391122E030E040E04C
:101CB00050E00E94A711672B682B692BA1F481E0EB
:101CC00090E090930301809302018FEF9FEF909338
:101CD00001018093000102C010927D0180917D017D
:101CE00080937C0178CF8FEF9FEFEBCFE090BE0128
:101CF000F090BF01C090BC01D090BD0140E0B701A1
:101D0000C6010E949C0456013FEFA31AB30A40E0AB
:101D1000B701C5010E949C044FEFE41AF40A40E0A9
:101D2000B701C6010E949C0440E0B701C5010E94B2
:101D30009C0485E290E09093FA018093F9018AE295
:101D400090E09093FC018093FB018FE591E00E946D
:101D500092078FE190E09093FA018093F90188E374
:101D600090E09093FC018093FB0189E691E00E9452
:101D700092072091DC013091DD0150E040E019A292
:101D80007E0191E2E90EF11CCA01B9012AE030E0BE
:101D900040E050E00E94D911605DF70162937F013D
:101DA000211531054105510579F7309761F0019012
:101DB0000020E9F73197AF014E195F09B7018AEEAC
:101DC00091E00E94B0030E945F0480EA9FE00E94BD
:101DD000DD03C090DC01D090DD01C114D10409F411
:101DE000CAC1712CA6E5EA2EF12CC7010E94A107F9
:101DF000082FC70101960E94A1070F3F19F48F3FDA
:101E000009F4D1C0902F21E0270D8C159D0508F015
:101E1000BFC10E94540380E28093C3018093C40138
:101E20008093C50156E5852E51E0952E64E1C62EBE
:101E3000D12C70E4272E312CE8E44E2E512CF1E207
:101E4000AF2E30E2B32E4FE2642E0E945F040E9458
:101E500047031092FC011092FB0120E130E0309327
:101E6000FA012093F90181E791E00E9492078091A5
:101E7000DD018F938091DC018F939F928F9246ECCE
:101E800051E05F934F930E94461488E590E0909351
:101E9000FA018093F9011092FC011092FB0186EC8B
:101EA00091E00E949207E8E3F0E0F093FA01E093FA
:101EB000F901D092FC01C092FB016091C3018AEE4E
:101EC00091E00E94AB053092FA012092F901D09284
:101ED000FC01C092FB016091C4018AEE91E00E9476
:101EE000AB055092FA014092F901D092FC01C092E8
:101EF000FB016091C5018AEE91E00E94AB0501E013
:101F00002BE130E04EE350E06BE170E088E390E0DD
:101F10000E940F052BE130E046E450E06BE170E0F9
:101F200080E490E00E940F052BE130E04EE450E0A9
:101F30006BE170E088E490E00E940F0500E02CE186
:101F400030E048E550E06CE170E088E390E00E940A
:101F50000F05812F90E0079623E0880F991F2A959F
:101F6000E1F7AC014A5F5F4F01E02CE130E06CE14A
:101F700070E00E940F0586E490E00E94DD030E945D
:101F800010040F900F900F900F900F900F9085FFFF
:101F90000DC0112379F0115060E570E086E194E006
:101FA0000E94B20607C090E080E02DCF0E9410048E
:101FB00082FDEFCF0E94100486FF09C0123038F472
:101FC0001F5F60E570E086E194E00E94B2060E9427
:101FD000100487FF25C0812F90E09C012D533E4FB8
:101FE0007901F90100810F5F008360E570E08BE00B
:101FF00092E00E94B206003311F4F701B082F701BB
:102000008081813211F401E40083F70180818B35F6
:1020100011F400E30083F7018081803409F4A08289
:102020000E94100484FF25C0812F90E09C012D5355
:102030003E4F7901F90100810150008360E570E0B5
:102040008BE092E00E94B206003219F48FE3F701B0
:102050008083F70180818F3211F48AE58083F70154
:1020600080818F3109F46082F7018081803409F426
:10207000B0820E94100483FFE8CE60E570E086E144
:1020800094E00E94B206123010F41F5FDACEF5E041
:102090007F9E800111240A5A1F4FC8010E94A10788
:1020A000482E48012FEF821A920AC4010E94A1070C
:1020B0003FEF431203C08F3F09F467C0542C482EF2
:1020C000580142E0A40EB11CC5010E94A107282EB0
:1020D000680153E0C50ED11CC6010E94A107382E2D
:1020E000780164E0E60EF11CC7010E94A107682E8A
:1020F0006091DD011A830983CE0101960E94A30736
:102100006091DC019A828982CE0101960E94A30728
:102110006091C301BA82A982CE0101960E94A307F1
:102120006091C401DA82C982CE0101960E94A307A0
:102130006091C501FA82E982CE0101960E94A3074F
:102140005092DD014092DC012092C3013092C40123
:102150006092C50173940B5F1F4F87E078129DCF8B
:102160001092DD011092DC0180E28093C301809324
:10217000C4018093C5010E9454031092DE011092A5
:10218000DF0183E08093040153CD512C412C98CF83
:1021900095E0E90EF11C722EE7E02E1326CEEBCF70
:1021A000EAEEF1E0138212821186128680E18387C3
:1021B0001086178215868EE091E0918380838CE1F2
:1021C00091E095838483108A1786128A118A81E0B0
:1021D000838B148A858B168A08958F929F92AF9273
:1021E000BF92CF92DF92EF92FF92CF93DF93EC01F9
:1021F000688179818A819B816115710581059105CD
:1022000021F464E279ED8BE597E02DE133EF41E0D5
:1022100050E00E94A71149015A019B01AC01A7EAB5
:10222000B1E40E94C6116B017C01ACEEB4EFA501D4
:1022300094010E94D411C60ED71EE81EF91EF7FEA7
:1022400006C081E0C81AD108E10880E8F80AC8820F
:10225000D982EA82FB82C701B6019F77DF91CF91D5
:10226000FF90EF90DF90CF90BF90AF909F908F90B6
:1022700008958F929F92AF92BF92CF92DF92EF928A
:10228000FF92609106017091070180910801909181
:102290000901611571058105910521F464E279ED6B
:1022A0008BE597E02DE133EF41E050E00E94A7116C
:1022B00049015A019B01AC01A7EAB1E40E94C61191
:1022C0006B017C01ACEEB4EFA50194010E94D41126
:1022D000C60ED71EE81EF91EF7FE06C081E0C81A1A
:1022E000D108E10880E8F80AC0920601D0920701FF
:1022F000E0920801F0920901C701B6019F77FF90B3
:10230000EF90DF90CF90BF90AF909F908F90089507
:10231000609306017093070180930801909309016F
:102320000895F999FECF92BD81BDF89A992780B59D
:102330000895262FF999FECF1FBA92BD81BD20BD09
:102340000FB6F894FA9AF99A0FBE01960895052EE1
:1023500097FB1EF400940E94BE1157FD07D00E9407
:10236000D91107FC03D04EF40C94BE115095409542
:10237000309521953F4F4F4F5F4F08959095809531
:10238000709561957F4F8F4F9F4F08950E94FB116D
:10239000A59F900DB49F900DA49F800D911D1124B9
:1023A0000895B7FF0C94C6110E94C611821B930BAF
:1023B0000895A1E21A2EAA1BBB1BFD010DC0AA1F86
:1023C000BB1FEE1FFF1FA217B307E407F50720F09E
:1023D000A21BB30BE40BF50B661F771F881F991F19
:1023E0001A9469F760957095809590959B01AC0162
:1023F000BD01CF010895A29FB001B39FC001A39F6B
:10240000700D811D1124911DB29F700D811D11242D
:10241000911D089597FB072E16F4009407D077FDC1
:1024200009D00E941E1207FC05D03EF490958195BC
:102430009F4F0895709561957F4F0895AA1BBB1B10
:1024400051E107C0AA1FBB1FA617B70710F0A61BB4
:10245000B70B881F991F5A95A9F780959095BC01D5
:10246000CD010895EE0FFF1F0590F491E02D099422
:102470005058BB27AA270E9450120C949A130E940E
:102480008C1338F00E94931320F039F49F3F19F415
:1024900026F40C9489130EF4E095E7FB0C94831357
:1024A000E92F0E94AB1358F3BA176207730784072A
:1024B000950720F079F4A6F50C94CD130EF4E09571
:1024C0000B2EBA2FA02D0B01B90190010C01CA01EE
:1024D000A0011124FF27591B99F0593F50F4503E99
:1024E00068F11A16F040A22F232F342F4427585F8B
:1024F000F3CF469537952795A795F0405395C9F7A3
:102500007EF41F16BA0B620B730B840BBAF091505A
:10251000A1F0FF0FBB1F661F771F881FC2F70EC0F9
:10252000BA0F621F731F841F48F4879577956795CC
:10253000B795F7959E3F08F0B0CF9395880F08F0B8
:102540009927EE0F9795879508950E94B9120C94DC
:102550009A130E94931358F00E948C1340F029F4B0
:102560005F3F29F00C94831351110C94CE130C94FB
:1025700089130E94AB1368F39923B1F3552391F3A8
:10258000951B550BBB27AA2762177307840738F0E2
:102590009F5F5F4F220F331F441FAA1FA9F335D03F
:1025A0000E2E3AF0E0E832D091505040E695001CF3
:1025B000CAF72BD0FE2F29D0660F771F881FBB1FAD
:1025C000261737074807AB07B0E809F0BB0B802D8B
:1025D000BF01FF2793585F4F3AF09E3F510578F0B7
:1025E0000C9483130C94CE135F3FE4F3983ED4F322
:1025F000869577956795B795F7959F5FC9F7880F8B
:10260000911D9695879597F90895E1E0660F771FDC
:10261000881FBB1F621773078407BA0720F0621B6D
:10262000730B840BBA0BEE1F88F7E09508950E9498
:10263000B31388F09F5798F0B92F9927B751B0F08E
:10264000E1F0660F771F881F991F1AF0BA95C9F736
:1026500014C0B13091F00E94CD13B1E008950C94F4
:10266000CD13672F782F8827B85F39F0B93FCCF3A7
:10267000869577956795B395D9F73EF490958095B3
:10268000709561957F4F8F4F9F4F0895E89409C0D3
:1026900097FB3EF490958095709561957F4F8F4F95
:1026A0009F4F9923A9F0F92F96E9BB279395F695AB
:1026B000879577956795B795F111F8CFFAF4BB0F29
:1026C00011F460FF1BC06F5F7F4F8F4F9F4F16C08D
:1026D000882311F096E911C0772321F09EE8872F17
:1026E000762F05C0662371F096E8862F70E060E0D3
:1026F0002AF09A95660F771F881FDAF7880F96954C
:10270000879597F9089597F99F6780E870E060E0F2
:1027100008959FEF80EC089500240A94161617067A
:1027200018060906089500240A94121613061406C2
:1027300005060895092E0394000C11F4882352F025
:10274000BB0F40F4BF2B11F460FF04C06F5F7F4FDD
:102750008F4F9F4F089557FD9058440F551F59F0C4
:102760005F3F71F04795880F97FB991F61F09F3F7E
:1027700079F087950895121613061406551FF2CFA7
:102780004695F1DF08C0161617061806991FF1CFF7
:1027900086957105610508940895E894BB2766271E
:1027A0007727CB0197F908950E94E7130C949A13A9
:1027B0000E948C1338F00E94931320F0952311F09F
:1027C0000C9483130C94891311240C94CE130E943F
:1027D000AB1370F3959FC1F3950F50E0551F629FA7
:1027E000F001729FBB27F00DB11D639FAA27F00D6A
:1027F000B11DAA1F649F6627B00DA11D661F829F91
:102800002227B00DA11D621F739FB00DA11D621F75
:10281000839FA00D611D221F749F3327A00D611D92
:10282000231F849F600D211D822F762F6A2F112474
:102830009F5750409AF0F1F088234AF0EE0FFF1FA7
:10284000BB1F661F771F881F91505040A9F79E3FFE
:10285000510580F00C9483130C94CE135F3FE4F386
:10286000983ED4F3869577956795B795F795E79554
:102870009F5FC1F7FE2B880F911D9695879597F95D
:10288000089581E090E0F8940C941E17AEE0B0E05B
:10289000ECE4F4E10C94F5160D891E8986E08C8336
:1028A0001A8309838FEF9FE79E838D83AE01475E76
:1028B0005F4F6F89788DCE0101960E9469142F8138
:1028C0003885020F131FF80110822E96E4E00C9455
:1028D0001117ABE0B0E0EFE6F4E10C94E7167C01F1
:1028E0003B018A01FC0117821682838181FFC8C1E6
:1028F000CE0101965C01F7019381F30193FD85916F
:1029000093FF81913F01882309F453C1853239F443
:1029100093FD859193FF81913F01853229F4B701A1
:1029200090E00E945916E7CF912C212C312CFFE129
:10293000F31538F08B3211F190F4803209F18332C3
:1029400029F137FC3CC020ED280F2A3050F536FE27
:1029500020C08AE0989E200D1124922E06C08D3250
:1029600091F0803371F7689430F8F30193FD85910D
:1029700093FF81913F018111DACF21C0689431F832
:10298000689432F8F2CF689433F8EFCF689434F853
:10299000ECCFEAE02E9E200D1124222E689435F80B
:1029A000E4CF8E3229F436FC04C1689436F8DDCFCA
:1029B0008C3619F4689437F8D8CF8836B1F2982F4E
:1029C0009F7D95549330E0F08336A1F18337C1F1B8
:1029D000833509F063C02801F2E04F0E511CF80165
:1029E000C080D180692D70E036FC02C06FEF7FEFB0
:1029F000C6010E9443164C01689437F882010AC050
:102A00000C5F1F4FFFE3F98388248394912C6501A9
:102A1000E89437F833FE2DC0522C8114910471F5DF
:102A2000552009F468CFB70180E290E00E94591662
:102A30005A94F6CFF801808189830E5F1F4FE4CF4F
:102A40002801F2E04F0E511CF801C080D180692DA1
:102A500070E036FC02C06FEF7FEFC6010E944E1699
:102A60004C018201D5CFB70180E290E00E94591657
:102A70002A942814190409F0B0F7CECFF60137FCD8
:102A8000859137FE81916F01B70190E00E94591640
:102A900051105A94F1E08F1A9108BFCF843619F083
:102AA000893609F077C0F80137FE6BC0608171810B
:102AB000828193810C5F1F4FF32DFF763F2E97FF8E
:102AC00009C090958095709561957F4F8F4F9F4F6E
:102AD000689437F82AE030E0A5010E948916C82ED4
:102AE000CA188C2C432C36FE0CC0E89440F8C9144C
:102AF00040F434FE05C032FC03C0F32DFE7E4F2EA1
:102B0000892C44FE95C0FE01EC0DF11D80818033BF
:102B100009F087C0242D297E422E842D8870582EDE
:102B200043FC95C040FE8FC09C2C821418F42C0CE2
:102B3000922C981844FE91C0B70180E390E00E9467
:102B4000591642FE09C088E790E041FE02C088E5C0
:102B500090E0B7010E945916C91408F48AC0CA94BB
:102B6000D12C9FEFC91AD90ACA0CDB1CF60182913D
:102B70006F01B70190E00E945916AC14BD04B1F783
:102B80004FCF60817181072E000C880B990B0E5F6F
:102B90001F4F92CFD32CE894D4F82AE030E0853749
:102BA00039F1232D297FD22E8F3601F148F4883553
:102BB000A9F0F701868197812B96E2E10C94031727
:102BC000803749F08837A9F7D4FE02C06894D2F85C
:102BD00020E130E00DC06894D4F8F6CF34FE03C095
:102BE000822F8660D82E20E132E002C028E030E05B
:102BF000F801D7FE0FC060817181828193810C5FE3
:102C00001F4FA5010E948916C82ECA183D2CE894B2
:102C100037F867CF6081718190E080E00E5F1F4FD1
:102C2000F0CF42FC02C0839478CF8394839475CF15
:102C3000842D867809F471CFF6CFB70180E290E059
:102C40000E94591683948214C0F3512C73CF522CD6
:102C50005818821408F46ECFF8CF842D867809F4C2
:102C60007BCF8BE241FE80E247FC8DE2B70190E032
:102C700071CFB70180E390E00E9459169A946CCF0F
:102C80008FEF9FEF99CFFC010590615070400110CC
:102C9000D8F7809590958E0F9F1F0895FC01615085
:102CA000704001900110D8F7809590958E0F9F1F6E
:102CB00008950F931F93CF93DF93182F092FEB01E4
:102CC0008B8181FD09C01FEF0FEF812F902FDF91C6
:102CD000CF911F910F91089582FF14C02E813F81E3
:102CE0008C819D81281739073CF4E881F981CF0157
:102CF00001969983888310838E819F8101969F839B
:102D00008E83E3CFE885F985812F0995892BA1F37F
:102D1000DACFFA01AA27283051F1203181F1E89465
:102D20006F936E7F6E5F7F4F8F4F9F4FAF4FB1E0BE
:102D30003ED0B4E03CD0670F781F891F9A1FA11DB9
:102D4000680F791F8A1F911DA11D6A0F711D811DBA
:102D5000911DA11D20D009F468943F912AE0269F7F
:102D600011243019305D3193DEF6CF010895462FDE
:102D70004770405D4193B3E00FD0C9F7F6CF462FBF
:102D80004F70405D4A3318F0495D31FD4052419328
:102D900002D0A9F7EACFB4E0A695979587957795E5
:102DA0006795BA95C9F700976105710508959B016C
:102DB000AC010A2E06945795479537952795BA95F5
:102DC000C9F7620F731F841F951FA01D08952F92CE
:102DD0003F924F925F926F927F928F929F92AF92AB
:102DE000BF92CF92DF92EF92FF920F931F93CF93F8
:102DF000DF93CDB7DEB7CA1BDB0B0FB6F894DEBF8F
:102E00000FBECDBF09942A88398848885F846E84B4
:102E10007D848C849B84AA84B984C884DF80EE80FE
:102E2000FD800C811B81AA81B981CE0FD11D0FB607
:102E3000F894DEBF0FBECDBFED010895F894FFCF2B
:102E4000FFFFFFFF03010100000000000000AB05D1
:102E5000B003AF06AE060608FCFF0000470842526A
:102E600045414B4F5554005052455353204649520B
:102E70004521002020202020202020202020004844
:102E80004947482053434F5245530025326400259B
:102E90006325632563202575005041555345004740
:102EA000616D65204F7665720053636F72653A20DD
:0C2EB00000484947482053434F5245005A
:00000001FF
