:100000000C9424030C944C030C944C030C944C035C
:100010000C944C030C944C030C944C030C944C0324
:100020000C944C030C944C030C944C030C944C0314
:100030000C944C030C944C030C944C030C944C0304
:100040000C9431050C944C030C944C030C944C030D
:100050000C944C030C944C030C944C030C944C03E4
:100060000C944C030C944C0300000000003E5B4FCA
:100070005B3E3E6B4F6B3E1C3E7C3E1C183C7E3C08
:10008000181C577D571C1C5E7F5E1C00183C180016
:10009000FFE7C3E7FF0018241800FFE7DBE7FF30A6
:1000A000483A060E2629792926407F050507407F14
:1000B00005253F5A3CE73C5A7F3E1C1C08081C1C87
:1000C0003E7F14227F22145F5F005F5F06097F017D
:1000D0007F006689956A606060606094A2FFA29468
:1000E00008047E040810207E201008082A1C080836
:1000F0001C2A08081E101010100C1E0C1E0C303884
:100100003E3830060E3E0E06000000000000005F84
:1001100000000007000700147F147F14242A7F2AA0
:100120001223130864623649562050000807030062
:10013000001C2241000041221C002A1C7F1C2A08AE
:10014000083E080800807030000808080808000011
:1001500060600020100804023E5149453E00427F85
:10016000400072494949462141494D331814127FD4
:100170001027454545393C4A494931412111090774
:100180003649494936464949291E000014000000F5
:1001900040340000000814224114141414140041C7
:1001A00022140802015909063E415D594E7C121184
:1001B000127C7F494949363E414141227F414141BC
:1001C0003E7F494949417F090909013E4141517337
:1001D0007F0808087F00417F41002040413F017FA8
:1001E000081422417F404040407F021C027F7F0470
:1001F00008107F3E4141413E7F090909063E4151B9
:10020000215E7F09192946264949493203017F01A8
:10021000033F4040403F1F2040201F3F4038403FA9
:10022000631408146303047804036159494D4300BF
:100230007F4141410204081020004141417F0402F6
:10024000010204404040404000030708002054548D
:1002500078407F284444383844444428384444286B
:100260007F385454541800087E090218A4A49C78BE
:100270007F0804047800447D40002040403D007F1A
:100280001028440000417F40007C047804787C08FA
:100290000404783844444438FC18242418182424CE
:1002A00018FC7C08040408485454542404043F44B3
:1002B000243C4040207C1C2040201C3C4030403CE2
:1002C00044281028444C9090907C4464544C440042
:1002D00008364100000077000000413608000201A6
:1002E0000204023C2623263C1EA1A161123A404092
:1002F000207A385454555921555579412154547810
:1003000041215554784020545579400C1E527212A8
:100310003955555559395454545939555454580030
:1003200000457C410002457D420001457C40F029AA
:100330002429F0F0282528F07C54554500205454F9
:100340007C547C0A097F493249494932324848483D
:1003500032324A4848303A4141217A3A4240207884
:10036000009DA0A07D39444444393D4040403D3C7F
:1003700024FF2424487E4943662B2FFC2F2BFF09A2
:1003800029F620C0887E0903205454794100004496
:100390007D413048484A32384040227A007A0A0A81
:1003A000727D0D19317D2629292F282629292926F4
:1003B00030484D4020380808080808080808382F39
:1003C00010C8ACBA2F102834FA00007B00000814C3
:1003D0002A142222142A14089500220095AA0055F6
:1003E00000AAAA55AA55AA000000FF00101010FF8D
:1003F00000141414FF001010FF00FF1010F010F094
:10040000141414FC001414F700FF0000FF00FF1484
:1004100014F404FC141417101F10101F101F1414D0
:10042000141F00101010F0000000001F101010101A
:100430001F10101010F010000000FF10101010100E
:1004400010101010FF10000000FF140000FF00FF4C
:1004500000001F10170000FC04F4141417101714E8
:1004600014F404F40000FF00F7141414141414140A
:10047000F700F7141414171410101F101F1414147D
:10048000F4141010F010F000001F101F0000001FE7
:1004900014000000FC140000F010F01010FF10FF1A
:1004A000141414FF141010101F00000000F010FFAF
:1004B000FFFFFFFFF0F0F0F0F0FFFFFF0000000093
:1004C00000FFFF0F0F0F0F0F38444438447C2A2AD7
:1004D0003E147E02020606027E027E0263554941F8
:1004E000633844443C04407E201E2006027E020203
:1004F00099A5E7A5991C2A492A1C4C7201724C3017
:100500004A4D4D303048784830BC625A463D3E49ED
:100510004949007E0101017E2A2A2A2A2A44445F91
:10052000444440514A444040444A51400000FF0185
:1005300003E080FF000008086B6B08361236243693
:10054000060F090F060000181800000010100030F8
:1005500040FF0101001F01011E00191D1712003C80
:100560003C3C3C0000000000F0F89C8E8783878EA6
:100570009CF8F00000FEFF0303030303070EFCF8E2
:100580000000FEFF0303030303070EFCF80000FF57
:10059000FF00000000000000FFFF0000FEFF83835B
:1005A000838383C7EE7C380000F8FC0E0703030347
:1005B000070EFCF800003F7FE0C08080C0E07F3F76
:1005C000FFFF01010101010101FFFF0000FFFF0C1E
:1005D0000C0C0C1C3E77E3C100007FFFC0C0C0C004
:1005E000C0E0703F1F00001F3F70E0C0C0C0E0705F
:1005F0003F1F00007FFFC1C1C1C1C1E3773E1C00A6
:10060000001F3F70E0C0C0C0E0703F1F000000004E
:100610000001FFFF01000000AED5F0A83FD300406D
:100620008D14A1C8DA1281CFD9F1DB40A4A6AF2086
:100630000021007F22000748656C6C6F2C20776FCB
:10064000726C64210000A70711241FBECFEFD8E011
:10065000DEBFCDBF11E0A0E0B1E0EEECFFE002C0F4
:1006600005900D92A431B107D9F725E0A4E1B1E0DE
:1006700001C01D92A433B207E1F713E0C4E2D3E056
:1006800004C02197FE010E94DA07C332D107C9F7DF
:100690000E94C0050C94E5070C9400003FB7F89445
:1006A0008091300190913101A0913201B0913301DC
:1006B00026B5A89B05C02F3F19F00196A11DB11DBD
:1006C0003FBFBA2FA92F982F8827BC01CD01620FF9
:1006D000711D811D911D42E0660F771F881F991FB4
:1006E0004A95D1F70895AF92BF92CF92DF92EF92E1
:1006F000FF920F931F93CF93DF936C017B018B01CC
:10070000040F151FEB015E01AE18BF08C017D1071B
:1007100059F06991D601ED91FC910190F081E02DA5
:10072000C6010995892B79F7C501DF91CF911F91FA
:100730000F91FF90EF90DF90CF90BF90AF90089512
:100740008F929F92AF92BF92CF92DF92EF92FF92E1
:100750006C01F12CE12C0E944E034B015C010E94C4
:100760004E03681979098A099B09683E734081051F
:100770009105A8F321E0C21AD108E108F10888EE3A
:10078000880E83E0981EA11CB11CC114D104E104A1
:10079000F10429F7FF90EF90DF90CF90BF90AF90DA
:1007A0009F908F90089533990CC080E84A9B806198
:1007B000319B80624B9B80644C9B8860329B846041
:1007C000089580E0F3CF8093BB0084E88093BC0061
:1007D0008091BC0087FFFCCF089584EA8093BC0021
:1007E0008091BC0087FFFCCF88E70C94E303CF9394
:1007F000C82F0E94ED0380E48093BB0084E88093BF
:10080000BC00E4E3F1E09091BC0097FFFCCF919134
:100810009093BB008093BC00CC2319F0DF011197AB
:100820001C9295E0E433F90771F78091BC0087FFD3
:10083000FCCF84E98093BC008091BC0084FDFCCF98
:10084000CF9108952F923F924F925F926F927F9235
:100850008F929F92AF92BF92CF92DF92EF92FF92D0
:100860000F931F93CF93DF9300D000D01F92CDB78B
:10087000DEB79C838B836A3059F5DC0155968C91E9
:10088000B8E08B9F90011124EB81FC8181899289D2
:10089000820F931F928B818B108A178681E090E0E4
:1008A0000F900F900F900F900F90DF91CF911F91AD
:1008B0000F91FF90EF90DF90CF90BF90AF909F90FF
:1008C0008F907F906F905F904F903F902F90089502
:1008D0006D3021F3AB81BC811F968D919C91509717
:1008E000803891050CF087C05196CD90DC90B0E433
:1008F000CB16D1040CF07FC0EB81FC819588E5E03C
:100900009C019E9E200D311D1124121613060CF021
:1009100072C0E92CF12C9701B3E0220F331FBA9576
:10092000E1F72C0D3D1D121613060CF064C0AB81CF
:10093000BC8154965C90549753964C906E9FF001F6
:100940001124E859FF4F70E02491753009F420E03C
:100950005601A8E06A2E222E312C642D20FF652D31
:10096000611103C0541409F437C0AC0161706A838B
:100970004983242F281B291578F510E000E009157C
:1009800040F54038510510F598012A0D3B1D2034E3
:100990003105E0F460E1762E898061E021FD64E0BC
:1009A00020FD660F22FD6295287F729ED0011124E2
:1009B000A80D6D83AC5CBE4F2C913A81862E822AA5
:1009C000311103C08D80809482228C920F5F1F4F63
:1009D000D6CF4F5F5F4FCCCF9101359527956A9465
:1009E000AE0CBF1C6110B7CF7F5F31968E0D9F1D7F
:1009F000763009F0A9CFAB81BC8155962C915597E3
:100A0000422F50E01F968D919C91B6E02B9F800D58
:100A1000911D1124EB81FC81908B878726892223ED
:100A200009F43CCF6AEF64039001659F300D1124F7
:100A300020583F4F281739070CF030CFCF010190D5
:100A4000F081E02D0190F081E02D6AE0099526CF3C
:100A50000895089590E080E008950C94C4070E94E2
:100A6000E0071F920F920FB60F9211242F933F931E
:100A70008F939F93AF93BF9380912C0190912D0101
:100A8000A0912E01B0912F0130912B0123E0230F73
:100A90002D3758F50196A11DB11D20932B01809390
:100AA0002C0190932D01A0932E01B0932F018091E2
:100AB000300190913101A0913201B0913301019642
:100AC000A11DB11D8093300190933101A09332019B
:100AD000B0933301BF91AF919F918F913F912F912F
:100AE0000F900FBE0F901F90189526E8230F0296C7
:100AF000A11DB11DD2CF0F931F93CF93DF938C0114
:100B000081E090E00E942D0580FF32C08AE090E0F5
:100B10000E942D059FEF980F9E3F50F522E330E095
:100B2000D80150963C932E931F9728E330E05296BD
:100B30003C932E935197CBE0D0E0D801ED91FC91FE
:100B40000190F081E02D682FC8010995CE010E9427
:100B50002D052196C131D10581F780E00E94F70370
:100B600088EE93E0DF91CF911F910F910C94A00339
:100B7000DF91CF911F910F91089504970C947B05FD
:100B8000789484B5826084BD84B5816084BD85B568
:100B9000826085BD85B5816085BD80916E00816074
:100BA00080936E001092810080918100826080931A
:100BB000810080918100816080938100809180001C
:100BC0008160809380008091B10084608093B10047
:100BD0008091B00081608093B00080917A00846041
:100BE00080937A0080917A00826080937A0080916D
:100BF0007A00816080937A0080917A008068809387
:100C00007A001092C10081EC80937C0088B18E60E4
:100C100088B987B1817F87B98BB18C618BB98AB173
:100C2000837E8AB98AB1806E8AB98BB18F718BB994
:100C30001092B90088E48093B8000E94ED0380E030
:100C40000E94E303C8E1D6E007E316E0FE018491C9
:100C50000E94E30321960C171D07C1F784E98093D6
:100C6000BC008091BC0084FDFCCF81E08093B80083
:100C700080E00E94F7030E94D30382FF46C05E9A81
:100C80000E94D30384788438D9F45E9888EC90E08D
:100C90000E94A0035F9A82E090E00E94C4078F3F09
:100CA00029F06FEF82E090E00E94CC0784EF91E0A2
:100CB0000E94A0035F980E94D30384788438D9F3FC
:100CC0000E94D30384718431D9F45E9888EC90E05B
:100CD0000E94A0035D9A82E090E00E94C4078823EE
:100CE00029F060E082E090E00E94CC0784EF91E080
:100CF0000E94A0035D980E94D30384718431D9F3CC
:100D000088EC90E00E94A003B6CF5E9882E090E06D
:100D10000E942D05882309F44CC0219A239A81E072
:100D200090E00E942D05F82FF4709F2E81FF0DC0DA
:100D3000F1115D9AC0EFDFEF08E010E00E94D303ED
:100D400086FF3AC05D985F985E9882E390E00E94CB
:100D5000A0030E94D3038111F8CF82E480931F0186
:100D600004E311E0C0E0D0E09924939494E0E92EEC
:100D7000F12C29E0C22ED12C8FB7F89440912C0190
:100D800050912D0160912E0170912F018FBF8091A4
:100D90002001942F981B80912101882309F49DC084
:100DA0009093220110922101209731F30E940000BC
:100DB000E3CF21982398B3CF992029F0C430D105EF
:100DC00011F45D985F9A81E00E94F7039E01D7FFBE
:100DD00004C0222733272C1B3D0B27703327CE015D
:100DE000D7FD079673E0959587957A95E1F7D7FF3C
:100DF00005C00197A801421B530B9A01AC015695FF
:100E0000542F4427579547954C545E4FB0E0A0E0CF
:100E10003801621A730A8F3F6FEF96070CF43AC0DD
:100E20007A01E0E8EE1AF10870E060E0FD01E859AF
:100E3000FA4F5F018F3F980779F0F501E60FF71F32
:100E4000E491F0E06F01022E01C0CC0C0A94EAF7A5
:100E5000F701D488CD28C48A2115310599F0F50110
:100E6000E60FF71FE4916A01C60ED71EF0E02F01CE
:100E7000062C02C0559447940A94E2F7F601548870
:100E80004528448A6F5F7F4FFFEFEF1AFF0A6835EE
:100E9000710581F60196A85ABF4F40585F4FA03B9D
:100EA000B10509F0B8CF80E00E94F7038FE090E031
:100EB0000E94A0032196C931D10509F03FCF9920A6
:100EC00011F05F985E9A80E991E00E94A0035E981D
:100ED00084E191E00E947B0538CF20911F01921799
:100EE00008F462CF909221014093200120911B01D0
:100EF00030911C012F5F3F4F30931C0120931B0149
:100F0000F80181118FEF0024819381938193819364
:100F10000394D1F7F0922401E0922301D0922601AC
:100F2000C092250187E3A82E86E0B82EF5016491D2
:100F3000662349F084E191E00E942204FFEFAF1A9A
:100F4000BF0A892B99F780E00E94F7032DCFE4E1D7
:100F5000F1E0138212821186128680E18387108667
:100F60001782158684E091E09183808382E191E08D
:100F700095838483108A1786128A118A81E0838B75
:100F8000148A858B168A0895F999FECF92BD81BD8A
:100F9000F89A992780B50895262FF999FECF1FBAA0
:100FA00092BD81BD20BD0FB6F894FA9AF99A0FBE92
:100FB00001960895EE0FFF1F0590F491E02D09941E
:0E0FC00081E090E0F8940C94E507F894FFCFE0
:100FCE0000000000220473032A0529057B05FCFF9F
:040FDE000000BD054D
:00000001FF
